:100000000C9467000C948F000C948F000C948F005C
:100010000C948F000C948F000C948F000C948F0024
:100020000C948F000C948F000C948F000C948F0014
:100030000C948F000C948F000C948F000C948F0004
:100040000C943D110C948F000C9420130C948F0091
:100050000C948F000C948F000C948F000C948F00E4
:100060000C948F000C948F000000000024002700E7
:100070002A0000000000250028002B0000000000DE
:1000800023002600290004040404040404040202DA
:100090000202020203030303030301020408102007
:1000A0004080010204081020010204081020000012
:1000B0000007000201000003040600000000000029
:1000C0000000CD007701D5035515C600CE031124DD
:1000D0001FBECFEFD8E0DEBFCDBF12E0A0E0B1E0A1
:1000E000EAEDF2E402C005900D92A838B107D9F705
:1000F00015E0A8E8B2E001C01D92A73DB107E1F705
:1001000010E0CAECD0E004C02297FE010E94412119
:10011000C23CD107C9F70E948F150C9460210C9442
:10012000000089EB95E00E940E150895682F89EB79
:1001300095E00E94421580E090E0089589EB95E0FB
:1001400040E051EE60E070E00E94BD130895F89425
:10015000FFCF8130910561F46F5F7F4FB1F489E883
:1001600092E00E94820383E992E00E948203089554
:10017000892B59F46F5F7F4F41F483E992E00E942D
:10018000A40389E892E00E94A403089580E090E02F
:100190006FEF7FEF0E94A900089581E090E06FEF7C
:1001A0007FEF0E94A900089580EA92E00E94CF01AB
:1001B0006AE070E080E090E00E94B9110895EF924B
:1001C000FF920F931F9300EA12E0C8010E949E0065
:1001D0008DE061E00E945712C80160E071E00E946A
:1001E000E0028093880289E8E82E82E0F82EC801B8
:1001F00069E071E043E251E097010E94E302C70128
:1002000006966EE170E00E94920489E992E06CE348
:1002100070E00E9492041F910F91FF90EF9008955B
:1002200080919D02882341F48DE061E00E947D125F
:1002300081E080939D0208958DE060E00E947D1230
:1002400010929D0208950E94100100D000D000D0AD
:10025000EDB7FEB731968091990290919A02ADB7B1
:10026000BEB712969C938E9311978EE091E0938384
:10027000828380918F0290919002958384830E9463
:10028000950E8DB79EB706960FB6F8949EBF0FBE1B
:100290008DBF80EA92E06091880243E952E00E94BB
:1002A000BF020895FC0180E291E09183808308956C
:1002B000FC0180E291E0918380830895FC0180E25B
:1002C00091E0918380830895FC0180E291E0918325
:1002D00080830895FC01E55AFE4F11821082E25D91
:1002E000FE4F11921192108208950895089586E9A3
:1002F00090E061E970E00E94E80D90939F02809386
:100300009E020895EF92FF920F93DF93CF9300D058
:10031000CDB7DEB77B015A834983822F60919E025D
:1003200070919F0290E00E94340E60919E02709145
:100330009F02802F90E00E94340E20919E02309107
:100340009F02CE01019662E070E041E050E00E9421
:10035000600E69817A8120919E0230919F02C701CF
:1003600041E050E00E94600E0F900F90CF91DF911E
:100370000F91FF90EF9008950F931F938C016CECF9
:1003800072E00E946004AC01C801045D1F4FB80117
:100390002FEF00E00E9482011F910F9108955F925C
:1003A0006F927F928F929F92AF92BF92CF92DF9285
:1003B000EF92FF920F931F93CF93DF93EC01809105
:1003C0009E0290919F020E9491009C01E1E66E2E98
:1003D000E1E07E2E6C0E7D1E79E8A72E72E0B72E2E
:1003E000AC0EBD1E6BE8E62E62E0F62EEC0EFD1E96
:1003F000552453948E01055A1E4F59E5C52E51E0E0
:10040000D52ECC0EDD1E48E5842E41E0942E8C0EB8
:100410009D1EA0C0D5018D919C911197FE01E80F02
:10042000F91FE35AFE4F20839C012F5F3F4F2D930E
:100430003C93F70180818823D9F524303105C1F53B
:100440005082D601ED91FC9182819381D801119661
:100450009C938E93808181508E3F38F41D921C9224
:10046000F50111821082D7011C92D601ED91FC9109
:1004700080818823E9F49181F4018081981740F00C
:10048000D8011D921C92F50111821082D7011C9295
:10049000D601ED91FC91828193818C52914040F084
:1004A000F80111821082D5011D921C92F701108271
:1004B000D7018C91813009F046C0F801808191818B
:1004C00001979183808397FF3EC011821082D501EE
:1004D0001D921C92F7011082D601ED91FC91808152
:1004E0008F3F19F4CE010E94BC01D601ED91FC9121
:1004F0008081882341F5E181F0E03C96EE0FFF1FFB
:10050000EC0FFD1FA081B181ED91FC91119702804C
:10051000F381E02DCD01B3010995D601ED91FC9158
:10052000E181F0E03296DF01AA0FBB1FAC0FBD1FC7
:100530003A96EE0FFF1FEC0FFD1F2D913C9180812D
:100540009181F901099580919E0290919F020E94EC
:1005500091009C01BFEF2F3F3B0709F05BCFDF917C
:10056000CF911F910F91FF90EF90DF90CF90BF90B0
:10057000AF909F908F907F906F905F900895CF92F3
:10058000DF92EF92FF920F936C01062FDA01FCE2EB
:10059000EF2EF12CE80EF91EED91FC910190F08107
:1005A000E02DCA01B7010995AC01C601B70120E0F1
:1005B0000E9482010F91FF90EF90DF90CF900895FD
:1005C0000E94DC030895CF92DF92EF92FF920F9387
:1005D0001F938C017A0169010E94DC03E82FF0E08F
:1005E0003296DF01AA0FBB1FA00FB11FED92FC9244
:1005F0003A96EE0FFF1FE00FF11FD182C0821F91CC
:100600000F91FF90EF90DF90CF900895FF920F939E
:100610001F938C01F42E0E94EF04085A1E4FF8011C
:10062000F0820D5F1F4FF80111821082025D1E4F94
:10063000F8011182108209581240C801835A9E4F56
:10064000075A1E4FF801918380830E5C1E4FF801FC
:1006500010821F910F91FF900895FF920F931F93A7
:100660008C01F42E0E94EF04085A1E4FF801F0820C
:100670000D5F1F4FF80111821082025D1E4FF801BD
:100680001182108209581240C801835A9E4F075A9E
:100690001E4FF801918380830E5C1E4FF80110827B
:1006A0001F910F91FF90089506960E94FD030895F3
:1006B00006960E940904089506960E946004089513
:1006C0000F931F938C010E9452018AE291E0F8017E
:1006D00091838083C80106960E94F9031F910F91B0
:1006E00008950F931F938C010E9452018AE291E0BA
:1006F000F80191838083C80106960E94F9031F9137
:100700000F9108950F931F938C010E9452018AE26A
:1007100091E0F80191838083C80106960E94F90355
:100720001F910F9108950F931F938C010E94520106
:100730008AE291E0F80191838083C80106960E94C5
:10074000F9031F910F910895FC018AE291E09183D2
:100750008083CF010E945E010895FC018AE291E04E
:1007600091838083CF010E945E01089581309105BD
:1007700059F46F5F7F4F89F480EA92E060E371E0A3
:1007800042E00E9406030895892B39F46F5F7F4F82
:1007900021F480EA92E00E947601089580E090E0E2
:1007A0006FEF7FEF0E94B603089581E090E06FEF56
:1007B0007FEF0E94B6030895CF93DF93EB01CB0147
:1007C0006DE371E00E941C0D009711F480E00AC0F7
:1007D000CE0162E471E00E941C0D9C0180E0232B9D
:1007E00009F481E0DF91CF910895FC011382128218
:1007F0000895FC01138212820895FC01A081B18149
:10080000FD0101900020E9F7EA1BFB0B3396CF01B5
:100810000895AF92BF92CF92DF92EF92FF920F9323
:100820001F93DF93CF9300D000D0CDB7DEB77C010C
:10083000FB01219131914191519129833A834B835D
:100840005C83D70112960D911C9113975801CC240B
:10085000DD246C9111967C91A216B306C406D506D0
:1008600070F4CB01BF01A8010E94FD0CD701ED91EE
:10087000FC91119712968D919C9113970AC0CB0110
:10088000BF01A9010E94FD0CD701ED91FC91898166
:100890009A81E80FF91F108229813A812C5F3F4F1E
:1008A000C9010F900F900F900F90CF91DF911F9182
:1008B0000F91FF90EF90DF90CF90BF90AF90089591
:1008C000DF93CF9300D000D0CDB7DEB79C01DC0121
:1008D000EC911196FC91DF010D900020E9F7CD011C
:1008E00001978E1B9F0BA0E0B0E0AC0189839A8337
:1008F000AB83BC83FB0181939193A193B193D90105
:100900006C9111967C91CF010E94FD0C29813A8156
:100910002C5F3F4FC9010F900F900F900F90CF9118
:10092000DF9108950F931F93CF93DF93EC018B0119
:100930008A819B81892B59F4CB0101960E94FB0B84
:10094000888399831B830A83E881F9811082DF9170
:10095000CF911F910F910895CF92DF92EF92FF9266
:100960000F931F93CF93DF937C01D62EC72EE62FD4
:10097000F72FEF0109900020E9F72197CE1BDF0B3D
:10098000DC0112968D919C911397892B21F4C7015C
:10099000BE010E949204F701628173816C177D078A
:1009A00018F08C2F6D2F02C0862F672F082F162F5F
:1009B000D7018D919C916D2D7C2DA8010E943A0D3F
:1009C000D701ED91FC91E00FF11F1082DF91CF91E3
:1009D0001F910F91FF90EF90DF90CF9008950E94AC
:1009E000AC0408950E94AC04089560E070E00E9499
:1009F0009204089560E070E00E9492040895EF92DE
:100A0000FF920F931F937B018C0120E030E040E0C8
:100A10005FE40E947B0888238CF0C801B70120E0C6
:100A200030E040E05FE40E9477060E9439099B01B4
:100A3000AC01205030404040504806C0C801B701CA
:100A40000E9439099B01AC01B901CA011F910F91A4
:100A5000FF90EF900895A0E0B0E0E1E3F5E00C94A2
:100A60000821DC012B01FA019C91923008F439C174
:100A7000EB018881823008F433C1943069F484300A
:100A800009F02FC111969C9111978981981709F44B
:100A900028C1AEE4B1E025C1843009F421C182301F
:100AA000A9F4923009F01DC19A01AD0188E0EA0174
:100AB0000990AE01E90109929E018150C1F7E2015E
:100AC000898111969C918923818308C1923009F410
:100AD00007C112962D903C901397EB018A819B8160
:100AE0001496AD90BD90CD90DC901797EC80FD8072
:100AF0000E811F819101281B390BB90137FF04C0FA
:100B000066277727621B730B603271050CF061C09A
:100B1000121613066CF537014801062E04C0969490
:100B20008794779467940A94D2F721E030E040E00C
:100B300050E004C0220F331F441F551F6A95D2F79F
:100B400021503040404050402E213F21402351232E
:100B5000211531054105510521F021E030E040E04B
:100B600050E079018A01E628F728082919293CC0B4
:100B7000232BD1F1260E371E35014601062E04C067
:100B800096948794779467940A94D2F721E030E0A2
:100B900040E050E004C0220F331F441F551F6A95E8
:100BA000D2F721503040404050402A213B214C2177
:100BB0005D21211531054105510521F021E030E08D
:100BC00040E050E059016A01A628B728C828D92872
:100BD0000BC0821593052CF01C01AA24BB246501CF
:100BE00003C0EE24FF24870111969C91D201119637
:100BF0008C91981709F445C0992339F0A801970101
:100C00002A193B094C095D0906C0A60195012E1958
:100C10003F09400B510B57FD08C0118233822282DD
:100C200024833583468357831DC081E081833382CB
:100C3000228288279927DC01821B930BA40BB50B1A
:100C400084839583A683B7830DC0220F331F441F6F
:100C5000551F24833583468357838281938101976F
:100C6000938382832481358146815781DA01C901CA
:100C70000197A109B1098F5F9F4FAF4FBF4328F381
:100C80000BC0918333822282EA0CFB1C0C1D1D1DBC
:100C9000E482F5820683178383E080832481358193
:100CA0004681578157FF1AC0C901AA2797FDA09511
:100CB000BA2F81709070A070B07056954795379597
:100CC0002795822B932BA42BB52B84839583A68306
:100CD000B78382819381019693838283DF0101C070
:100CE000D201CD01CDB7DEB7E2E10C942421A0E220
:100CF000B0E0EDE7F6E00C94142169837A838B83EE
:100D00009C832D833E834F835887E9E0EE2EF12CA0
:100D1000EC0EFD1ECE010196B7010E942A0B8E013A
:100D20000F5E1F4FCE010596B8010E942A0B8A89DB
:100D300091E089278A8BC701B801AE01475E5F4FFA
:100D40000E942B050E94550AA096E6E00C943021E3
:100D5000A0E2B0E0EEEAF6E00C94142169837A8315
:100D60008B839C832D833E834F835887F9E0EF2E3E
:100D7000F12CEC0EFD1ECE010196B7010E942A0B4C
:100D80008E010F5E1F4FCE010596B8010E942A0BFF
:100D9000C701B801AE01475E5F4F0E942B050E945C
:100DA000550AA096E6E00C943021A0E2B0E0EBED0D
:100DB000F6E00C94082169837A838B839C832D83CE
:100DC0003E834F835887CE010196BE01675F7F4FF8
:100DD0000E942A0BCE010596BE016F5E7F4F0E94D6
:100DE0002A0B9985923088F089898230C8F0943036
:100DF00019F4823051F404C0843029F4923081F423
:100E00008EE491E0C6C0923049F420E09A858A8948
:100E1000981321E02A87CE010996BBC0823049F49D
:100E200020E09A858A89981321E02A8BCE01419689
:100E3000B0C02D843E844F8458886D887E888F880A
:100E4000988CEE24FF248701AA24BB24650140E08E
:100E500050E060E070E0E0E0F0E0C101817090708F
:100E6000892BE9F0E60CF71C081D191D9A01AB014E
:100E70002A0D3B1D4C1D5D1D80E090E0A0E0B0E020
:100E8000E614F7040805190520F481E090E0A0E0DD
:100E9000B0E0BA01A901480F591F6A1F7B1FAA0CB5
:100EA000BB1CCC1CDD1C97FE08C081E090E0A0E0DC
:100EB000B0E0A82AB92ACA2ADB2A3196E032F10525
:100EC00049F0660C771C881C991C569447943794FB
:100ED0002794C3CFFA85EA892B893C898B859C8529
:100EE000280F391F2E5F3F4F17C0CA0181709070C5
:100EF000892B61F016950795F794E79480E090E0D0
:100F0000A0E0B0E8E82AF92A0A2B1B2B7695679512
:100F1000579547952F5F3F4F77FDE7CF0CC0440FA4
:100F2000551F661F771F17FD4160EE0CFF1C001F49
:100F3000111F21503040403090E0590790E0690780
:100F400090E4790760F32B8F3C8FDB01CA018F7728
:100F50009070A070B07080349105A105B10561F466
:100F600047FD0AC0E114F1040105110529F0405CB8
:100F70005F4F6F4F7F4F40781A8EFE1711F081E060
:100F80008A8F4D8F5E8F6F8F78A383E0898FCE011C
:100F900049960E94550AA096E2E10C942421A8E10A
:100FA000B0E0E5EDF7E00C94102169837A838B8340
:100FB0009C832D833E834F835887B9E0EB2EF12C21
:100FC000EC0EFD1ECE010196B7010E942A0B8E0188
:100FD0000F5E1F4FCE010596B8010E942A0B29858E
:100FE000223008F47EC03989323010F4B8017CC058
:100FF0008A859A8989278A87243011F0223031F432
:10100000231709F06EC06EE471E06EC0343039F41D
:101010001D861E861F86188A1C861B8604C03230D9
:1010200021F484E08987B7015FC02B853C858B89DB
:101030009C89281B390B3C872B87ED84FE840F8508
:101040001889AD88BE88CF88D88CEA14FB040C05BB
:101050001D0540F4EE0CFF1C001F111F21503040F5
:101060003C872B8720E030E040E050E080E090E0DB
:10107000A0E0B0E460E070E0EA14FB040C051D059C
:1010800040F0282B392B4A2B5B2BEA18FB080C0964
:101090001D09B695A79597958795EE0CFF1C001F27
:1010A000111F6F5F7F4F6F31710531F7DA01C90191
:1010B0008F779070A070B07080349105A105B10554
:1010C00061F427FD0AC0E114F1040105110529F0BE
:1010D000205C3F4F4F4F5F4F20782D873E874F87D3
:1010E000588BBE01675F7F4FCB010E94550A6896FF
:1010F000EAE00C942C21A8E1B0E0E1E8F8E00C94DF
:10110000142169837A838B839C832D833E834F8351
:10111000588789E0E82EF12CEC0EFD1ECE010196D9
:10112000B7010E942A0B8E010F5E1F4FCE0105965C
:10113000B8010E942A0B8985823040F0898982306B
:1011400028F0C701B8010E94A20B01C08FEF68967A
:10115000E6E00C943021A8E1B0E0E1EBF8E00C947B
:10116000142169837A838B839C832D833E834F83F1
:10117000588789E0E82EF12CEC0EFD1ECE01019679
:10118000B7010E942A0B8E010F5E1F4FCE010596FC
:10119000B8010E942A0B8985823040F0898982300B
:1011A00028F0C701B8010E94A20B01C081E0689637
:1011B000E6E00C943021A8E0B0E0E1EEF8E00C9419
:1011C00011219B01AC0183E08983DA01C9018827E1
:1011D000B7FD83959927AA27BB27B82E211531057E
:1011E0004105510519F482E089833AC08823A9F0AA
:1011F000203080E0380780E0480780E8580729F46D
:1012000060E070E080E09FEC30C0EE24FF248701B6
:10121000E21AF30A040B150B02C079018A018EE170
:10122000C82ED12CDC82CB82ED82FE820F83188700
:10123000C801B7010E94060A01971816190684F41E
:10124000082E04C0EE0CFF1C001F111F0A94D2F7D9
:10125000ED82FE820F831887C81AD90ADC82CB82FE
:10126000BA82CE0101960E94550A2896E9E00C94B4
:101270002D21ACE0B0E0EFE3F9E00C941821698394
:101280007A838B839C83CE010196BE016B5F7F4F77
:101290000E942A0B8D81823061F1823050F18430BE
:1012A00021F48E81882351F12EC02F81388537FD9E
:1012B00020C06E812F3131051CF06623F9F023C068
:1012C0008EE190E0821B930B29853A854B855C85E6
:1012D00004C056954795379527958A95D2F766238A
:1012E000B1F050954095309521953F4F4F4F5F4F4E
:1012F0000EC020E030E040E050E009C02FEF3FEFAB
:101300004FEF5FE704C020E030E040E050E8B90173
:10131000CA012C96E2E00C943421A8E0B0E0E3E9A5
:10132000F9E00C9410217B018C0161157105810598
:10133000910519F482E0898360C083E089838EE19E
:10134000C82ED12CDC82CB82ED82FE820F831887DF
:10135000C801B7010E94060AFC013197F7FF3BC0A4
:10136000222733272E1B3F0B57016801022E04C092
:10137000D694C794B794A7940A94D2F740E050E06B
:1013800060E070E081E090E0A0E0B0E004C0880F91
:10139000991FAA1FBB1F2A95D2F70197A109B1096E
:1013A0008E219F21A023B1230097A105B10521F033
:1013B00041E050E060E070E04A295B296C297D291A
:1013C0004D835E836F8378878EE190E08E1B9F0B49
:1013D0009C838B8312C0309781F00E2E04C0EE0CDC
:1013E000FF1C001F111F0A94D2F7ED82FE820F83AB
:1013F0001887CE1ADF0ADC82CB821A82CE010196D0
:101400000E94550A2896EAE00C942C21EF92FF9254
:101410000F931F937B018C0180E0E81680E0F806B3
:1014200081E0080780E0180788F48FEFE816F104E0
:101430000105110531F028F088E090E0A0E0B0E06F
:1014400017C080E090E0A0E0B0E012C080E0E816B5
:1014500080E0F80680E0080781E0180728F088E1BE
:1014600090E0A0E0B0E004C080E190E0A0E0B0E057
:1014700020E230E040E050E0281B390B4A0B5B0BC8
:1014800004C016950795F794E7948A95D2F7F7016B
:10149000EA5AFE4F8081281B310941095109C901CF
:1014A0001F910F91FF90EF900895DF92EF92FF92BE
:1014B0000F931F93FC01E480F58006811781D18092
:1014C0008081823048F480E090E0A0E1B0E0E82A3A
:1014D000F92A0A2B1B2BA5C0843009F49FC0823047
:1014E00021F4EE24FF24870105C0E114F104010575
:1014F000110519F4E0E0F0E096C0628173819FEF7E
:10150000623879070CF05BC022E83FEF261B370BEF
:101510002A3131052CF020E030E040E050E02AC0D4
:10152000B801A701022E04C0769567955795479597
:101530000A94D2F781E090E0A0E0B0E004C0880F08
:10154000991FAA1FBB1F2A95D2F70197A109B109BC
:101550008E219F21A023B1230097A105B10521F081
:1015600081E090E0A0E0B0E09A01AB01282B392B9C
:101570004A2B5B2BDA01C9018F779070A070B07095
:1015800080349105A105B10539F427FF09C0205C1D
:101590003F4F4F4F5F4F04C0215C3F4F4F4F5F4F56
:1015A000E0E0F0E02030A0E03A07A0E04A07A0E445
:1015B0005A0710F0E1E0F0E079018A0127C06038B5
:1015C000710564F5FB01E158FF4FD801C7018F7722
:1015D0009070A070B07080349105A105B10539F408
:1015E000E7FE0DC080E490E0A0E0B0E004C08FE32F
:1015F00090E0A0E0B0E0E80EF91E0A1F1B1F17FFE5
:1016000005C016950795F794E794319687E01695EF
:101610000795F794E7948A95D1F705C0EE24FF2447
:101620008701EFEFF0E06E2F679566276795902FA3
:101630009F77D794DD24D7948E2F8695492F462BFC
:10164000582F5D29B701CA011F910F91FF90EF90AC
:10165000DF900895FC01DB01408151812281622FDE
:101660006F7770E0221F2227221F9381892F880F16
:10167000822B282F30E0991F9927991F11969C9350
:10168000119721153105A9F5411551056105710520
:1016900011F482E037C082E89FEF13969C938E93FB
:1016A00012979A01AB0167E0220F331F441F551FA9
:1016B0006A95D1F783E08C930DC0220F331F441F2E
:1016C000551F12968D919C911397019713969C9399
:1016D0008E931297203080E0380780E0480780E43E
:1016E000580758F314962D933D934D935C93179799
:1016F00008952F3F310579F44115510561057105B4
:1017000019F484E08C93089564FF03C081E08C9306
:1017100012C01C9210C02F57304013963C932E934A
:10172000129783E08C9387E0440F551F661F771F45
:101730008A95D1F7706414964D935D936D937C9365
:10174000179708951F93DC01FB019C91923008F4D8
:1017500047C08081823008F443C0943051F4119620
:101760001C91843099F58181682F70E0611B7109AB
:101770003FC0843021F0923031F48230B9F1818160
:10178000882389F12DC011961C9111978230F1F0B8
:1017900081811817D9F412962D913C91139782816B
:1017A00093818217930794F028173907BCF0149699
:1017B0008D919D910D90BC91A02D24813581468104
:1017C0005781281739074A075B0718F4112341F09E
:1017D0000AC082179307A407B50740F4112319F034
:1017E00061E070E005C06FEF7FEF02C060E070E085
:1017F000CB011F910895CF93DF93BC0182309105F7
:1018000010F462E070E0A091CF05B091D005ED0139
:10181000E0E0F0E040E050E021C088819981861747
:10182000970769F48A819B81309719F093838283AB
:1018300004C09093D0058093CF05FE0134C0681793
:10184000790738F44115510519F08417950708F404
:10185000AC01FE018A819B819C01E9012097E9F698
:1018600041155105A9F1CA01861B970B049708F48D
:10187000BA01E0E0F0E02AC08D919C9111978417A5
:101880009507F9F46417750781F412968D919C9170
:101890001397309719F09383828304C09093D005F7
:1018A0008093CF05FD0132964CC0CA01861B970B71
:1018B000FD01E80FF91F6193719302978D939C933B
:1018C00040C0FD01828193819C01D9011097A1F64E
:1018D0008091CD059091CE05892B41F480915802DD
:1018E000909159029093CE058093CD0540915A0274
:1018F00050915B024115510541F44DB75EB780919F
:10190000560290915702481B590B2091CD053091FA
:10191000CE05CA01821B930B8617970780F0AB0197
:101920004E5F5F4F8417950750F0420F531F50933F
:10193000CE054093CD05F9016193719302C0E0E0BB
:10194000F0E0CF01DF91CF910895CF93DF9300971F
:1019500009F450C0EC0122971B821A82A091CF0596
:10196000B091D005109709F140E050E0AC17BD07E9
:1019700008F1BB83AA83FE0121913191E20FF31F8D
:10198000AE17BF0779F48D919C911197280F391FDD
:101990002E5F3F4F3983288312968D919C91139728
:1019A0009B838A834115510571F4D093D005C09370
:1019B000CF0520C012968D919C911397AD01009791
:1019C00011F0DC01D3CFFA01D383C283219131918D
:1019D000E20FF31FCE17DF0769F488819981280F82
:1019E000391F2E5F3F4FFA01318320838A819B810B
:1019F00093838283DF91CF910895FB01DC0102C0C4
:101A000001900D9241505040D8F70895FB01DC0140
:101A10000D900020E9F7119701900D920020E1F759
:101A20000895FC018191861721F08823D9F7992721
:101A300008953197CF010895FB01DC018D9101904C
:101A400080190110D9F3990B0895FB01DC01019075
:101A50000D920020E1F70895FB01DC014150504058
:101A600030F08D910190801919F40020B9F7881B8E
:101A7000990B0895FB01DC014150504048F0019062
:101A80000D920020C9F701C01D9241505040E0F76F
:101A90000895FC0181E090E00190061609F4CF0161
:101AA0000020D1F701970895FB0151915523A9F02A
:101AB000BF01DC014D9145174111E1F759F4CD010A
:101AC0000190002049F04D9140154111C9F3FB01EF
:101AD0004111EFCF81E090E001970895FB019F0154
:101AE000E8944230C4F04532B4F44A3029F497FB0C
:101AF0001EF4909581959F4F642F77270E94F420C4
:101B0000805D8A330CF0895D8193CB010097A1F74A
:101B100016F45DE251931082C9010C94CF10FA01C2
:101B2000CF93FF93EF93223044F1253234F5C22F47
:101B3000E894CA3049F497FB3EF4909580957095EF
:101B400061957F4F8F4F9F4F2C2F33274427552769
:101B5000FF93EF930E94B720EF91FF91605D6A338E
:101B60000CF0695D6193B901CA016050704080401A
:101B7000904051F716F4CDE2C19310828F919F915E
:101B8000CF910C94CF10FA01CF93FF93EF932230B3
:101B9000CCF02532BCF4C22F2C2F332744275527F5
:101BA000FF93EF930E94B720EF91FF91605D6A333E
:101BB0000CF0695D6193B901CA01605070408040CA
:101BC000904051F710828F919F91CF910C94CF103C
:101BD0000F931F93CF93DF938C01EB01009731F4A8
:101BE0006115710519F420E030E038C081E090E023
:101BF0006EE070E00E949610FC019C01009771F16C
:101C000080E88383209771F0D387C28781E883833C
:101C10008091D1059091D205892B21F4F093D205C2
:101C2000E093D10501151105C9F011870087838163
:101C3000826083838091D3059091D405892B71F4C0
:101C4000F093D405E093D3058091D5059091D60506
:101C5000892B21F4F093D605E093D505C901DF91D6
:101C6000CF911F910F9108950F931F93CF93DF93FF
:101C70008C01EB018B8181FF1BC082FF0DC02E8187
:101C80003F818C819D812817390764F4E881F981AF
:101C90000193F983E88306C0E885F985802F0995CB
:101CA000892B31F48E819F8101969F838E8302C0A0
:101CB0000FEF1FEFC801DF91CF911F910F91089592
:101CC000A0E0B0E0E6E6FEE00C940E21FC014B0142
:101CD0005A016901D90113968C9181FF1EC07F01C1
:101CE000C0E0D0E014C0D6011896ED91FC91199790
:101CF000D7018C91B6010995892B89F40894E11CD0
:101D0000F11C0F5F1F4F0815190568F32196CA15BE
:101D1000DB0528F400E010E0F6CFC0E0D0E0CE0113
:101D2000CDB7DEB7ECE00C942A21AEE0B0E0EBE9F1
:101D3000FEE00C9416210D891E8986E08C831A839F
:101D400009838FEF9FE79E838D839E01275E3F4F20
:101D5000CE0101966F89788DA9010E94B90E2F815D
:101D60003885020F131FF80110822E96E4E00C94C0
:101D70003221ABE0B0E0EFEBFEE00C9408213C0137
:101D80002B015A01FC0117821682838181FD03C059
:101D90006FEF7FEFC6C19AE0892E1E010894211CC7
:101DA000311CF3012381F20123FD859123FF8191F1
:101DB0002F01882309F4B2C1853239F423FD8591BE
:101DC00023FF81912F01853229F490E0B3010E9415
:101DD000340EE7CF982FFF24EE249924FFE1FF155E
:101DE000D0F09B3269F09C3228F4903259F0933253
:101DF00091F40EC09D3249F0903369F441E024C063
:101E000052E0F52A84E0F82A28C098E0F92A25C093
:101E1000E0E1FE2A22C0F7FC29C0892F80538A30D6
:101E200070F4F6FE05C0989C902C1124980E15C0F5
:101E3000E89CE02C1124E80EF0E2FF2A0EC09E324E
:101E400029F4F6FC6BC140E4F42A07C09C3619F46F
:101E500050E8F52A02C0983649F4F20123FD959125
:101E600023FF91912F01992309F0B8CF892F855431
:101E7000833018F08052833038F444E050E0A40EF0
:101E8000B51E5FE359830FC0933631F0933779F075
:101E9000933509F056C020C0F5018081898342E066
:101EA00050E0A40EB51E610101E010E012C0F50182
:101EB000C080D180F6FC03C06FEF7FEF02C0692DB8
:101EC00070E042E050E0A40EB51EC6010E94C410AE
:101ED0008C015FE7F52214C0F501C080D180F6FCCB
:101EE00003C06FEF7FEF02C0692D70E042E050E069
:101EF000A40EB51EC6010E94B2108C0150E8F52A4E
:101F0000F3FE07C01AC080E290E0B3010E94340ED5
:101F1000EA948E2D90E008171907A8F30EC0F60179
:101F2000F7FC8591F7FE81916F0190E0B3010E946B
:101F3000340EE110EA94015010400115110579F7B3
:101F4000EAC0943611F0993669F5F7FE08C0F5013C
:101F5000208131814281538184E090E00AC0F50103
:101F6000808191819C01442737FD4095542F82E068
:101F700090E0A80EB91E9FE6F92257FF09C05095C0
:101F80004095309521953F4F4F4F5F4FE0E8FE2A37
:101F9000CA01B901A1012AE030E00E94DF10D82E69
:101FA000D21840C0953729F41F2D1F7E2AE030E05B
:101FB0001DC01F2D197F9F3661F0903720F4983592
:101FC00009F0ACC00FC0903739F0983709F0A6C0BF
:101FD00004C028E030E00AC0106114FD146020E164
:101FE00030E004C014FD166020E132E017FF08C0A5
:101FF000F501608171818281938144E050E008C0E5
:10200000F50180819181BC0180E090E042E050E0E8
:10201000A40EB51EA1010E94DF10D82ED2188FE7A2
:10202000F82EF122F6FE0BC05EEFF522D91438F43B
:10203000F4FE07C0F2FC05C08FEEF82202C01D2D91
:1020400001C0192DF4FE0DC0FE01ED0DF11D8081C2
:10205000803319F499EEF92208C01F5FF2FE05C023
:1020600003C08F2D867809F01F5F0F2DF3FC14C07D
:10207000F0FE0FC01E1510F09D2C0BC09D2C9E0C69
:10208000911A1E2D06C080E290E0B3010E94340E2A
:102090001F5F1E15C0F304C01E1510F4E11A01C025
:1020A000EE2404FF0FC080E390E0B3010E94340EE1
:1020B00002FF1DC001FD03C088E790E00EC088E567
:1020C00090E00BC0802F867891F001FF02C08BE278
:1020D00001C080E2F7FC8DE290E0B3010E94340E73
:1020E00006C080E390E0B3010E94340E9A94D914A4
:1020F000C0F3DA94F101ED0DF11D808190E0B301A0
:102100000E94340EDD20A9F706C080E290E0B30102
:102110000E94340EEA94EE20C1F743CEF3016681AB
:102120007781CB012B96E2E10C9424210F931F932E
:10213000CF93DF93689F8001699F100D789F100DEA
:102140001124C8010E94FB0BEC01009729F060E00C
:1021500070E0A8010E94BD10CE01DF91CF911F91C8
:102160000F910895FC010590615070400110D8F75F
:10217000809590958E0F9F1F0895DC0101C06D938F
:1021800041505040E0F70895FC01615070400190CB
:102190000110D8F7809590958E0F9F1F0895DC0150
:1021A000FC01672F71917723E1F7329704C07C918E
:1021B0006D9370836291AE17BF07C8F30895FA015B
:1021C000AA27283051F1203181F1E8946F936E7F76
:1021D0006E5F7F4F8F4F9F4FAF4FB1E03ED0B4E067
:1021E0003CD0670F781F891F9A1FA11D680F791FA8
:1021F0008A1F911DA11D6A0F711D811D911DA11DB9
:1022000020D009F468943F912AE0269F11243019C8
:10221000305D3193DEF6CF010895462F4770405D63
:102220004193B3E00FD0C9F7F6CF462F4F70405D12
:102230004A3318F0495D31FD4052419302D0A9F76D
:10224000EACFB4E0A6959795879577956795BA9567
:10225000C9F700976105710508959B01AC010A2E2D
:1022600006945795479537952795BA95C9F7620F04
:10227000731F841F951FA01D08951F920F920FB604
:102280000F9211242F933F938F939F93AF93BF93FC
:102290008091300590913105A0913205B0913305C0
:1022A000309134050196A11DB11D232F2D5F2D37CF
:1022B00020F02D570196A11DB11D20933405809368
:1022C000300590933105A0933205B093330580918A
:1022D0002C0590912D05A0912E05B0912F0501960A
:1022E000A11DB11D80932C0590932D05A0932E0563
:1022F000B0932F05BF91AF919F918F913F912F91F7
:102300000F900FBE0F901F9018958FB7F8942091E3
:1023100030053091310540913205509133058FBF22
:10232000B901CA0108959FB7F89420912C05309106
:102330002D0540912E0550912F0586B5A89B06C00E
:102340008F3F21F02F5F3F4F4F4F5F4F9FBF542F65
:10235000432F322F2227280F311D411D511D82E0AE
:10236000220F331F441F551F8A95D1F7B901CA01A7
:1023700008959B01AC017FB7F89480912C05909152
:102380002D05A0912E05B0912F0566B5A89B05C01F
:102390006F3F19F00196A11DB11D7FBFBA2FA92F64
:1023A000982F8827860F911DA11DB11D62E0880F0F
:1023B000991FAA1FBB1F6A95D1F7BC012DC0FFB79B
:1023C000F89480912C0590912D05A0912E05B09147
:1023D0002F05E6B5A89B05C0EF3F19F00196A11D9A
:1023E000B11DFFBFBA2FA92F982F88278E0F911DDF
:1023F000A11DB11DE2E0880F991FAA1FBB1FEA951E
:10240000D1F7861B970B885E9340C8F2215030406D
:102410004040504068517C4F211531054105510520
:1024200071F60895019739F0880F991F880F991F49
:1024300002970197F1F70895789484B5826084BD7E
:1024400084B5816084BD85B5826085BD85B58160B8
:1024500085BDEEE6F0E0808181608083E1E8F0E018
:102460001082808182608083808181608083E0E847
:10247000F0E0808181608083E1EBF0E08081846026
:102480008083E0EBF0E0808181608083EAE7F0E028
:10249000808184608083808182608083808181608C
:1024A00080838081806880831092C1000895482FC6
:1024B00050E0CA0186569F4FFC0124914A575F4F56
:1024C000FA0184918823C1F0E82FF0E0EE0FFF1F9E
:1024D000E859FF4FA591B491662341F49FB7F89452
:1024E0008C91209582238C939FBF08959FB7F89479
:1024F0008C91822B8C939FBF0895482F50E0CA0186
:1025000082559F4FFC012491CA0186569F4FFC01C2
:1025100034914A575F4FFA019491992309F440C0CE
:10252000222331F1233021F4809180008F7705C080
:10253000243031F4809180008F7D8093800018C01A
:10254000213019F484B58F7704C0223021F484B58A
:102550008F7D84BD0DC0263021F48091B0008F772F
:1025600005C0273029F48091B0008F7D8093B000A2
:10257000E92FF0E0EE0FFF1FEE58FF4FA591B49149
:10258000662341F49FB7F8948C91309583238C9304
:102590009FBF08959FB7F8948C91832B8C939FBF16
:1025A0000895682F70E0CB0182559F4FFC01249164
:1025B000CB0186569F4FFC0144916A577F4FFB0128
:1025C0009491992319F420E030E038C0222331F1AE
:1025D000233021F4809180008F7705C0243031F4BE
:1025E000809180008F7D8093800018C0213019F485
:1025F00084B58F7704C0223021F484B58F7D84BDEB
:102600000DC0263021F48091B0008F7705C02730AF
:1026100029F48091B0008F7D8093B000892F90E0E5
:10262000880F991F84589F4FFC01A591B4918C91FC
:1026300020E030E0842311F021E030E0C90108956A
:102640001F920F920FB60F9211242F933F934F9327
:102650005F936F937F938F939F93AF93BF93EF930A
:10266000FF934091C600E091B505F091B605CF010A
:10267000019660E870E00E94A4209C018091B7055B
:102680009091B8052817390739F0EB5CFA4F408371
:102690003093B6052093B505FF91EF91BF91AF91AF
:1026A0009F918F917F916F915F914F913F912F916A
:1026B0000F900FBE0F901F9018958F92AF92CF92F0
:1026C000DF92EF92FF920F931F93DF93CF93CDB7DB
:1026D000DEB7FC0180E692E091838083738362839E
:1026E000558344833783268311870087F386E286E8
:1026F000D586C486A68687868D85808B8E85818BC0
:102700008F85828BCF91DF911F910F91FF90EF907A
:10271000DF90CF90AF908F9008958F92AF92CF922D
:10272000DF92EF92FF920F931F93DF93CF93CDB77A
:10273000DEB7FC0180E692E091838083738362833D
:10274000558344833783268311870087F386E28687
:10275000D586C486A68687868D85808B8E85818B5F
:102760008F85828BCF91DF911F910F91FF90EF901A
:10277000DF90CF90AF908F9008955F926F927F928D
:102780008F929F92AF92BF92CF92DF92EF92FF9281
:102790000F931F93CF93DF93EC013A014B01413428
:1027A00082E458078FE0680780E078070CF07FC06C
:1027B00060E874E88EE190E0A40193010E94D920C2
:1027C0002150304040405040CA01B90122E030E081
:1027D00040E050E00E94D92059016A01A60195010C
:1027E000209530954095509594E0220F331F441F5B
:1027F000551F9A95D1F760E074E284EF90E00E9453
:10280000D920CA01B9012FEF30E040E050E00E942A
:102810008520A40193010E94D920C90181509F4FB6
:10282000181619061CF4522E5A9403C055245394BA
:10283000521A60E079E08DE390E0A40193010E94D8
:10284000D9202150304040405040CA01B90122E017
:1028500030E040E050E00E94D9202095309540952E
:10286000509583E0220F331F441F551F8A95D1F7DF
:1028700060E074E284EF90E00E94D920CA01B901BF
:102880002FEF30E040E050E00E948520A40193014A
:102890000E94D920C90181509F4F181619061CF4B7
:1028A000822F815002C081E0821B851500F5E885EA
:1028B000F98581E090E00A8802C0880F991F0A9488
:1028C000E2F7808360E079E08DE390E0A40193017A
:1028D0000E94D9202150304040405040CA01B901E7
:1028E00022E030E040E050E00E94D92004C0E885BA
:1028F000F98510829501EC81FD813083EE81FF81A5
:102900002083EA85FB85208141E050E0CA010E84E6
:1029100002C0880F991F0A94E2F7282B2083EA85CA
:10292000FB852081CA010F8402C0880F991F0A9479
:10293000E2F7282B2083EA85FB858081088802C086
:10294000440F551F0A94E2F7842B8083DF91CF91C7
:102950001F910F91FF90EF90DF90CF90BF90AF90BD
:102960009F908F907F906F905F900895FC01A2855B
:10297000B3854C9121E030E0C901068402C0880F84
:10298000991F0A94E2F7809584238C93A285B385DE
:102990004C91C901078402C0880F991F0A94E2F77D
:1029A000809584238C93A285B3858C91008802C086
:1029B000220F331F0A94E2F7209528232C930895C1
:1029C000DC011296ED91FC911397E058FF4F819135
:1029D000919180589F4F20813181821B930B60E839
:1029E00070E00E94A4200895DC011296ED91FC9104
:1029F0001397EE57FF4F2081318192918291E058D9
:102A0000F0408217930719F42FEF3FEF05C0E20F54
:102A1000F31F8081282F30E0C9010895CF93DF9301
:102A2000DC011296ED91FC911397EF01CE57DF4F29
:102A300048815981E058FF4F80819181E058F040F2
:102A40008417950719F42FEF3FEF0CC0E40FF51F23
:102A50002081CA01019660E870E00E94A420998359
:102A6000888330E0C901DF91CF910895DC0112968F
:102A7000ED91FC911397EE57FF4F808191819293D6
:102A800082930895FC01A085B18521898C9190E005
:102A9000022E02C0959587950A94E2F780FFF6CF43
:102AA0000484F585E02D6083089580E692E090939C
:102AB000BA058093B90585E395E09093BC058093B2
:102AC000BB0585EC90E09093BE058093BD0584EC3A
:102AD00090E09093C0058093BF0580EC90E09093C8
:102AE000C2058093C10581EC90E09093C40580936A
:102AF000C30586EC90E09093C6058093C50584E0FD
:102B00008093C70583E08093C80587E08093C9055B
:102B100085E08093CA0581E08093CB0508950E94EB
:102B20001C120E94DF000E94D400FDCF0F931F9360
:102B3000CF93DF938C01EB0109C02196D801ED9171
:102B4000FC910190F081E02DC80109956881662310
:102B5000A1F7DF91CF911F910F910895EF92FF920E
:102B60000F931F93CF93DF938C017B01EA010CC07D
:102B7000D7016D917D01D801ED91FC910190F0811B
:102B8000E02DC80109952197209791F7DF91CF910A
:102B90001F910F91FF90EF900895DC01ED91FC9152
:102BA0000280F381E02D09950895CF92DF92EF9294
:102BB000FF920F931F93CF93DF936C017B01C0E0D3
:102BC000D0E00EC0D601ED91FC9100811181C701CA
:102BD000BE010E949D18682FC601F8010995219633
:102BE000F70184819581C817D90760F3DF91CF91F0
:102BF0001F910F91FF90EF90DF90CF9008952F924B
:102C00003F924F925F926F927F928F929F92AF927C
:102C1000BF92CF92DF92EF92FF920F931F93DF93B9
:102C2000CF93CDB7DEB7A0970FB6F894DEBF0FBE37
:102C3000CDBF1C016A017B0141155105610571057C
:102C400049F440E350E060E070E020E030E00E94B2
:102C5000CB1656C0882499245401422E552466244C
:102C6000772401E010E00C0F1D1F080D191DC7018E
:102C7000B601A30192010E94B720F8016083089475
:102C8000811C911CA11CB11CC701B601A3019201BA
:102C90000E94B720C901DA016C017D01C114D10481
:102CA000E104F104F1F681E0E82EF12CEC0EFD1EBA
:102CB000E80CF91C3E010894611C711CD501C4018B
:102CC0000197A109B1096C01C818D90816C0F6010D
:102CD000EE0DFF1D40814A3010F4405D01C0495C9B
:102CE000552747FD5095652F752FC10120E030E035
:102CF0000E94CB160894E108F1086E147F0439F79E
:102D0000A0960FB6F894DEBF0FBECDBFCF91DF9176
:102D10001F910F91FF90EF90DF90CF90BF90AF90F9
:102D20009F908F907F906F905F904F903F902F90EB
:102D30000895DC012115310541F4ED91FC910190DC
:102D4000F081E02D642F099508950E94FF150895E4
:102D5000EF92FF920F931F939A017B0100E010E026
:102D6000B801A7010E9499161F910F91FF90EF9053
:102D70000895EF92FF920F931F939A01E62EFF247E
:102D800000E010E0B801A7010E9499161F910F9171
:102D9000FF90EF900895EF92FF920F931F93CF93C0
:102DA000DF93EC017A018B012115310541F4E881B3
:102DB000F9810190F081E02D642F09951BC02A3024
:102DC0003105B1F477FF10C04DE250E060E070E0F3
:102DD00020E030E00E94CB1610950095F094E0942E
:102DE000E11CF11C011D111DCE01B801A7012AE053
:102DF0000E94FF15DF91CF911F910F91FF90EF90EF
:102E00000895EF92FF920F931F937B019A01002781
:102E1000F7FC0095102FB801A7010E94CB161F9157
:102E20000F91FF90EF900895EF92FF920F931F93F1
:102E3000E62E9A01FF24E7FCF0940F2D1F2DB80118
:102E4000A7010E94CB161F910F91FF90EF9008955C
:102E50000F931F938C014DE050E060E070E020E0A4
:102E600030E00E94CB16C8014AE050E060E070E01C
:102E700020E030E00E94CB161F910F9108950F9330
:102E80001F938C010E949916C8010E9428171F9158
:102E90000F910895CF92DF92EF92FF920F931F93BD
:102EA0008C019A016B01EE24FF24B701A6010E9458
:102EB0009916C8010E9428171F910F91FF90EF905B
:102EC000DF90CF900895CF92DF92EF92FF920F9311
:102ED0001F938C019A01C62EDD24EE24FF24B70136
:102EE000A6010E949916C8010E9428171F910F91F0
:102EF000FF90EF90DF90CF9008950F931F938C0178
:102F00000E94CD15C8010E9428171F910F910895A6
:102F10000F931F938C010E94D515C8010E9428179A
:102F20001F910F9108950F931F938C010E94CB1650
:102F3000C8010E9428171F910F910895CF92DF9228
:102F4000EF92FF920F931F938C016B019A01EE2475
:102F5000D7FCE094FE2CB701A6010E94CB16C80155
:102F60000E9428171F910F91FF90EF90DF90CF9054
:102F70000895CF92DF92EF92FF920F931F938C01EF
:102F8000C62E9A01DD24C7FCD094ED2CFD2CB70190
:102F9000A6010E94CB16C8010E9428171F910F910D
:102FA000FF90EF90DF90CF9008959F92AF92BF92E5
:102FB000CF92DF92EF92FF920F931F93CF93DF9305
:102FC000EC017A018B01922ECB01BA0120E030E0B6
:102FD00040E050E00E94AB0888236CF4CE014DE243
:102FE00050E060E070E020E030E00E94CB1617FB7C
:102FF000109517F9109520E030E040E05FE3AA2437
:103000000BC0CA01B90120E030E040E251E40E9467
:10301000CF079B01AC01A394A91498F3C801B70191
:103020000E94A8065B016C010E94FF047B018C01D9
:10303000CE01B801A7012AE030E00E94991699203C
:1030400029F0CE016BE471E00E94CD15C801B701F3
:103050000E948D099B01AC01C601B5010E94770653
:1030600022C020E030E040E251E40E94D5067B011E
:103070008C010E9439095B016C01CC24B7FCC0941F
:10308000DC2CCE01B601A5012AE030E00E94CB166F
:10309000C601B5010E94DB089B01AC01C801B70164
:1030A0000E9477069A949920E1F6DF91CF911F91C3
:1030B0000F91FF90EF90DF90CF90BF90AF909F90D7
:1030C00008950E94D51708950F931F938C010E94B5
:1030D000D517C8010E9428171F910F910895FC0170
:1030E0000190F081E02DE60FF71F80810895DC014B
:1030F000ED91FC911197309751F014968D919C9120
:1031000015976817790718F4E60FF71F408308959D
:10311000FC019B01848195816817790728F46081FF
:1031200071816115710529F41092CC056CEC75E084
:1031300002C0620F731FCB010895FC010190F08162
:10314000E02DE60FF71F808108950F931F93CF9313
:10315000DF93FC018B0141155105A1F0611571054B
:1031600089F084819581EA0121978C179D0708F4E5
:10317000EC0160817181C801AE010E943A0DC00F5F
:10318000D11F1882DF91CF911F910F9108950F9356
:103190001F93CF93DF93FC018B0141155105A1F0E3
:1031A0006115710589F084819581EA0121978C1759
:1031B0009D0708F4EC0160817181C801AE010E9495
:1031C0003A0DC00FD11F1882DF91CF911F910F913F
:1031D00008950F931F938C01FC01808191810E94BF
:1031E000A50CF80113821282158214821F910F918F
:1031F0000895FC01DB0114962D913C911597848173
:103200009581821B930B8417950710F480E0089535
:10321000808191816D917C91840F951FA9010E94FD
:103220002C0D9C0180E0232B09F481E00895FC0122
:10323000DB012481358114968D919C911597281777
:10324000390710F480E00895CF0140E050E00E947B
:10325000F9180895DF92EF92FF920F931F93CF9387
:10326000DF93EC018C819D8148175907C8F47A01DE
:103270000894E11CF11CE881F981EE0DFF1DD0805E
:10328000108208811981772767FD7095C8010E9417
:10329000490D9C010E0D1F1DF801D082009719F4F5
:1032A000EFEFFFEF05C088819981F901E81BF90B69
:1032B000CF01DF91CF911F910F91FF90EF90DF90A1
:1032C0000895FC0144815581415050400E942A19C3
:1032D0000895CF93DF93FC01DB018481958148172A
:1032E000590760F4C081D1816D917C91CE01840F2A
:1032F000951F0E94540D9C01009719F42FEF3FEF8A
:1033000002C02C1B3D0BC901DF91CF91089540E015
:1033100050E00E9469190895CF93DF93FC018481E6
:1033200095814817590768F4C081D181772767FDD7
:103330007095CE01840F951F0E94110D9C0100977E
:1033400019F42FEF3FEF02C02C1B3D0BC901DF9199
:10335000CF91089540E050E00E948C190895DC015F
:10336000FB0114962D913C91159784819581281726
:10337000390711F080E00895608171818D919C91F1
:103380000E941C0D9C0180E0232B09F481E008952C
:10339000FC01DB012481358114968D919C91159758
:1033A0002817390710F480E00895281B390B808115
:1033B00091816D917C91820F931F0E941C0D9C0145
:1033C00080E0232B09F481E00895DC01FB0160819A
:1033D00071818D919C910E941C0D292F332727FD0F
:1033E0003095209530952227330F221F3327C901AE
:1033F0000895DC01FB01608171818D919C910E9497
:103400001C0D40E050E01816190614F041E050E0A1
:10341000CA010895DC01FB01608171818D919C914D
:103420000E941C0D40E050E01816190614F441E00B
:1034300050E0CA010895DC01FB01608171818D912A
:103440009C910E941C0D292F332727FD30952227A0
:10345000330F221F3327C9010895DC01FB011496A5
:103460002D913C911597848195812817390751F446
:10347000608171818D919C910E941C0D9C0180E066
:10348000232B09F081E090E00895DC01FB01149604
:103490002D913C911597848195812817390711F05A
:1034A00080E00BC0608171818D919C910E941C0D08
:1034B0009C0180E0232B09F481E090E00895FC0159
:1034C000DB016D917C91808191810E941C0D08959A
:1034D000CF93DF93EC01CB017B836A8301960E943B
:1034E000FB0B99838883009721F41B821A821D822B
:1034F0001C82DF91CF910895EF92FF920F931F935B
:10350000CF93DF93EC017B01FB01648175818C819A
:103510009D81680F791F7D836C838A819B818617CB
:10352000970778F408811981CE010E94681A888172
:103530009981009719F0B8010E94250DC8010E94D9
:10354000A50C88819981009729F0F701608171812C
:103550000E94060DCE01DF91CF911F910F91FF9038
:10356000EF9008950E947C1A08950F931F93CF93B4
:10357000DF93EC018B018617970709F1FB0124818A
:1035800035818C819D818217930750F488819981C0
:103590000E94A50CF80164817581CE010E94681A11
:1035A000288139812115310551F0F80184819581F7
:1035B0009D838C8360817181C9010E94250DCE019C
:1035C000DF91CF911F910F9108951F93CF93DF93B8
:1035D000EC01162F81E090E09D838C83CE0161E0A9
:1035E00070E00E94681AE881F981309721F0108319
:1035F000E881F9811182DF91CF911F9108951F9386
:10360000CF93DF93EC01162F81E090E09D838C83B4
:10361000CE0161E070E00E94681AE881F98130977C
:1036200021F01083E881F9811182DF91CF911F9100
:1036300008951F93CF93DF93EC01162F81E090E064
:103640009D838C83CE0161E070E00E94681AE8815E
:10365000F981309721F01083E881F9811182DF919F
:10366000CF911F9108951F93CF93DF93EC01162FF5
:1036700081E090E09D838C83CE0161E070E00E9448
:10368000681AE881F981309721F01083E881F98187
:103690001182DF91CF911F9108950F931F93CF93C4
:1036A000DF938C01EB016C817D81FC017583648368
:1036B0000E94681AF80180819181009721F0688149
:1036C00079810E94250DDF91CF911F910F9108956F
:1036D0000F931F93CF93DF938C01EB016C817D815E
:1036E000FC01758364830E94681AF80180819181CE
:1036F000009721F0688179810E94250DDF91CF919B
:103700001F910F910895EF92FF920F931F93DF93F4
:10371000CF93CDB7DEB7A1970FB6F894DEBF0FBE3B
:10372000CDBF8C01CB01BA017E010894E11CF11CD4
:10373000A7012AE030E00E94C30DF70101900020AC
:10374000E9F73197EE19FF09D8011596FC93EE932E
:103750001497C801BF010E94681AF8018081918105
:10376000009719F0B7010E94250DA1960FB6F894A5
:10377000DEBF0FBECDBFCF91DF911F910F91FF90A4
:10378000EF900895EF92FF920F931F93DF93CF93E3
:10379000CDB7DEB7A1970FB6F894DEBF0FBECDBF91
:1037A0008C01CB01BA017E010894E11CF11CA70138
:1037B0002AE030E00E94C30DF70101900020E9F7F4
:1037C0003197EE19FF09D8011596FC93EE931497E3
:1037D000C801BF010E94681AF80180819181009799
:1037E00019F0B7010E94250DA1960FB6F894DEBF1F
:1037F0000FBECDBFCF91DF911F910F91FF90EF9042
:103800000895EF92FF920F931F93DF93CF93CDB75D
:10381000DEB7A1970FB6F894DEBF0FBECDBF8C0107
:103820009A0180E090E07E010894E11CF11CA70160
:103830000E94C30DF70101900020E9F73197EE19BE
:10384000FF09D8011596FC93EE931497C801BF01A8
:103850000E94681AF80180819181009719F0B701E0
:103860000E94250DA1960FB6F894DEBF0FBECDBF06
:10387000CF91DF911F910F91FF90EF900895EF92FC
:10388000FF920F931F93DF93CF93CDB7DEB7A1972E
:103890000FB6F894DEBF0FBECDBF8C019A0180E059
:1038A00090E07E010894E11CF11CA7010E94C30D69
:1038B000F70101900020E9F73197EE19FF09D801CF
:1038C0001596FC93EE931497C801BF010E94681AE5
:1038D000F80180819181009719F0B7010E94250DB0
:1038E000A1960FB6F894DEBF0FBECDBFCF91DF918A
:1038F0001F910F91FF90EF9008950F931F93CF9317
:10390000DF938C01EB016115710511F4CDE4D1E079
:10391000FE0101900020E9F73197EC1BFD0BD80167
:103920001596FC93EE931497C801BF010E94681A84
:10393000F80180819181009719F0BE010E94250D48
:10394000DF91CF911F910F910895AF92BF92CF92C7
:10395000DF92EF92FF920F931F93CF93DF93B82ED6
:10396000A92E6B01C82FD92FFB0160817181CE0177
:103970000E947D1CEE24FF2410C0088119810E0DC9
:103980001F1DF8018081992787FD90950E94552180
:10399000F80180830894E11CF11CF6018481958173
:1039A000E816F90650F38B2D9A2DDF91CF911F91D8
:1039B0000F91FF90EF90DF90CF90BF90AF90089560
:1039C000AF92BF92CF92DF92EF92FF920F931F932D
:1039D000CF93DF93B82EA92E6B01C82FD92FFB01EF
:1039E00060817181CE010E947D1CEE24FF2410C0F5
:1039F000088119810E0D1F1DF8018081992787FD0F
:103A000090950E944D21F80180830894E11CF11CDF
:103A1000F60184819581E816F90650F38B2D9A2DD5
:103A2000DF91CF911F910F91FF90EF90DF90CF909A
:103A3000BF90AF900895EF92FF920F931F93DF9383
:103A4000CF93CDB7DEB72C970FB6F894DEBF0FBE7D
:103A5000CDBFFC017B018617970711F401E029C057
:103A600024813581DB0114968D919C91159728173F
:103A7000390711F000E01DC0CE010196BF010E9480
:103A8000E01C09811A81CE010796B7010E94E01C53
:103A90006F817885C8010E941C0D00E0009709F431
:103AA00001E0CE0107960E94E918CE0101960E941E
:103AB000E918802F2C960FB6F894DEBF0FBECDBF4D
:103AC000CF91DF911F910F91FF90EF900895CF92CA
:103AD000DF92EF92FF921F93CF93DF936C017B01F4
:103AE000B9012417350710F4BA01A901D7011496BA
:103AF0008D919C911597EB018617970708F4EC01BF
:103B0000D701ED91FC911197EC0FFD1F10811082F0
:103B10006D917C91640F751FC6010E947D1CD701B9
:103B2000ED91FC91EC0FFD1F1083C601DF91CF9149
:103B30001F91FF90EF90DF90CF9008950F931F9308
:103B40008C01FB01248135810E94671DC8011F91F2
:103B50000F9108958F929F92AF92BF92CF92DF9272
:103B6000EF92FF920F931F93DF93CF9300D000D07B
:103B700000D0CDB7DEB75C016B01DB0114968D91EF
:103B80009C9115970097A1F101974817590780F16B
:103B9000F501848195814817590750F5ED91FC9105
:103BA00000817A014E010894811C911C1FC0D5012F
:103BB000ED91FC91EE0DFF1D80818017A1F4F601BF
:103BC000248135812E0D3F1DC401B501A7010E943E
:103BD000671DC401B6010E94AF19182FC4010E94CD
:103BE000E918112341F40894E108F108F7FEDFCF4A
:103BF000EE24EA94FE2CC70126960FB6F894DEBF99
:103C00000FBECDBFCF91DF911F910F91FF90EF902D
:103C1000DF90CF90BF90AF909F908F900895FC0160
:103C2000DB014481558114968D919C911597481B19
:103C3000590BCF010E94AA1D0895AF92BF92CF9257
:103C4000DF92EF92FF920F931F93DF93CF9300D0F9
:103C500000D000D0CDB7DEB75C018B01DB016D91E8
:103C60007C916115710521F4B8010E944D1B42C081
:103C7000CE0101960E947D1CF801E480F580CC24E1
:103C8000DD2410C0D801ED91FC91EC0DFD1D80816B
:103C9000992787FD90950E944521892B31F0089442
:103CA000C11CD11CCE14DF0468F3ED80FE800DC072
:103CB000D801ED91FC91EE0DFF1D8081992787FDC4
:103CC00090950E944521892B31F00894E108F10874
:103CD000CE14DF0468F30894E11CF11CC5018E01C9
:103CE0000F5F1F4FB801A60197010E94671DC80111
:103CF0000E94E918C50126960FB6F894DEBF0FBEE4
:103D0000CDBFCF91DF911F910F91FF90EF90DF908A
:103D1000CF90BF90AF9008952F923F924F925F92B5
:103D20006F927F928F929F92AF92BF92CF92DF92CB
:103D3000EF92FF920F931F93DF93CF93CDB7DEB730
:103D400068970FB6F894DEBF0FBECDBF3C01FB01F4
:103D50002A011901608171816115710521F4BF018A
:103D60000E944D1B5AC07E010894E11CF11CC70142
:103D70000E947D1C8E01095F1F4FC8016DE471E038
:103D80000E947D1CD02EC12E3DE0832E912C8C0EE6
:103D90009D1E23E1A22EB12CAC0EBD1E24C0C40179
:103DA000B70140E050E098010E94671D8D2D9C2DC9
:103DB000B4010E947C1AC4010E94E9188D2D9C2D2B
:103DC000B1010E947C1AF20144815581400F511FBC
:103DD000C501B7010E949E1DC701B5010E94B51A19
:103DE000C5010E94E918C701B2010E9487198C0120
:103DF000FFEF8F3F9F0799F68D2D9C2DB7010E94F5
:103E00007C1AC3016D2D7C2D0E944D1B8D2D9C2D88
:103E10000E94E918C7010E94E918C30168960FB60D
:103E2000F894DEBF0FBECDBFCF91DF911F910F91F0
:103E3000FF90EF90DF90CF90BF90AF909F908F90CA
:103E40007F906F905F904F903F902F900895DF92FA
:103E5000EF92FF920F931F93DF93CF9300D000D088
:103E600000D0CDB7DEB77C01FB01142FD22E6081CC
:103E700071816115710521F4BF010E944D1B1CC0A9
:103E8000CE0101960E947D1C89819A81012F112704
:103E900007FD109501C0D082B8010E94110DFC01F0
:103EA0000097C9F7C7018E010F5F1F4FB8010E942D
:103EB0004D1BC8010E94E918C70126960FB6F89459
:103EC000DEBF0FBECDBFCF91DF911F910F91FF904D
:103ED000EF90DF9008950F931F93CF93DF938C01A2
:103EE000EB016115710511F4CDE4D1E0FE01019003
:103EF0000020E9F73197EC1BFD0BD8011596FC93D8
:103F0000EE931497C801BF010E94681AF8018081DE
:103F10009181009719F0BE010E94250DDF91CF918C
:103F20001F910F910895EF92FF920F931F93DF93CC
:103F3000CF93CDB7DEB7A1970FB6F894DEBF0FBE13
:103F4000CDBF8C01CB01BA017E010894E11CF11CAC
:103F5000A7010E948F0DF70101900020E9F731972A
:103F6000EE19FF09D8011596FC93EE931497C8013A
:103F7000BF010E94681AF80180819181009719F0B1
:103F8000B7010E94250DA1960FB6F894DEBF0FBEB3
:103F9000CDBFCF91DF911F910F91FF90EF900895CA
:103FA000EF92FF920F931F93DF93CF93CDB7DEB7BE
:103FB000A1970FB6F894DEBF0FBECDBF8C01CB0129
:103FC000BA017E010894E11CF11CA7010E948F0D2B
:103FD000F70101900020E9F73197EE19FF09D801A8
:103FE0001596FC93EE931497C801BF010E94681ABE
:103FF000F80180819181009719F0B7010E94250D89
:10400000A1960FB6F894DEBF0FBECDBFCF91DF9162
:104010001F910F91FF90EF900895EF92FF920F93F1
:104020001F93DF93CF93CDB7DEB7A1970FB6F89468
:10403000DEBF0FBECDBF8C01CB017E010894E11C19
:10404000F11CB7010E946E0DF70101900020E9F705
:104050003197EE19FF09D8011596FC93EE9314974A
:10406000C801BF010E94681AF80180819181009700
:1040700019F0B7010E94250DA1960FB6F894DEBF86
:104080000FBECDBFCF91DF911F910F91FF90EF90A9
:104090000895EF92FF920F931F93DF93CF93CDB7C5
:1040A000DEB7A1970FB6F894DEBF0FBECDBF8C016F
:1040B000CB017E010894E11CF11CB7010E946E0D3A
:1040C000F70101900020E9F73197EE19FF09D801B7
:1040D0001596FC93EE931497C801BF010E94681ACD
:1040E000F80180819181009719F0B7010E94250D98
:1040F000A1960FB6F894DEBF0FBECDBFCF91DF9172
:104100001F910F91FF90EF900895629FD001739FD0
:10411000F001829FE00DF11D649FE00DF11D929F63
:10412000F00D839FF00D749FF00D659FF00D9927A2
:10413000729FB00DE11DF91F639FB00DE11DF91FC6
:10414000BD01CF011124089597FB092E07260AD03F
:1041500077FD04D049D006D000201AF470956195FF
:104160007F4F0895F6F7909581959F4F0895A1E2AE
:104170001A2EAA1BBB1BFD010DC0AA1FBB1FEE1FE1
:10418000FF1FA217B307E407F50720F0A21BB30B2C
:10419000E40BF50B661F771F881F991F1A9469F7A8
:1041A00060957095809590959B01AC01BD01CF0104
:1041B000089597FB092E05260ED057FD04D0D7DFB2
:1041C0000AD0001C38F450954095309521953F4F0A
:1041D0004F4F5F4F0895F6F79095809570956195D4
:1041E0007F4F8F4F9F4F0895AA1BBB1B51E107C004
:1041F000AA1FBB1FA617B70710F0A61BB70B881F77
:10420000991F5A95A9F780959095BC01CD01089505
:104210002F923F924F925F926F927F928F929F92D6
:10422000AF92BF92CF92DF92EF92FF920F931F93C4
:10423000CF93DF93CDB7DEB7CA1BDB0B0FB6F89475
:10424000DEBF0FBECDBF09942A88398848885F84B5
:104250006E847D848C849B84AA84B984C884DF8026
:10426000EE80FD800C811B81AA81B981CE0FD11D0A
:104270000FB6F894DEBF0FBECDBFED010895EE0F6F
:10428000FF1F0590F491E02D0994911116C0803222
:1042900019F089508550D0F70895911108958154EF
:1042A0008A5108F4805E855A0895911108958156C7
:1042B0008A5108F4805285580895992788270895CF
:1042C00010E0CAECD0E004C0FE010E944121229619
:0A42D000CE3CD107C9F7F894FFCFE8
:1042DA00726573706F6E73650063616C6C00596F01
:1042EA00752073656E74203A202573000000000063
:1042FA00A700A700A700000000005C0358035403AE
:10430A0063616C6C526573706F6E73650063616C88
:10431A006C00726573706F6E7365002E000000008A
:10432A00000000000000000102020303030304046A
:10433A000404040404040505050505050505050529
:10434A000505050505050606060606060606060609
:10435A0006060606060606060606060606060606F3
:10436A0006060606060607070707070707070707D9
:10437A0007070707070707070707070707070707C3
:10438A0007070707070707070707070707070707B3
:10439A0007070707070707070707070707070707A3
:1043AA000707070707070808080808080808080889
:1043BA000808080808080808080808080808080873
:1043CA000808080808080808080808080808080863
:1043DA000808080808080808080808080808080853
:1043EA000808080808080808080808080808080843
:1043FA000808080808080808080808080808080833
:10440A000808080808080808080808080808080822
:10441A000808080808080808080808080808080812
:10442A000808080808082000D70500000000000056
:10443A0042159615AE15E0140E153615F414000043
:10444A000000A7009615AE15A700A700A700000058
:08445A000000A7009615AE1545
:00000001FF
