:100000000C9408010C9432010C9432010C943201CE
:100010000C9432010C9432010C9432010C94320194
:100020000C9432010C9432010C9432010C94320184
:100030000C9432010C9432010C9432010C94320174
:100040000C9432010C9432010C9432010C94320164
:100050000C9432010C9432010C9432010C94A205E0
:100060000C9432010C944E130C9432010C94320116
:100070000C9432010C9432010C9432010C94320134
:100080000C9432010C9432010C9432010C94320124
:100090000C948F130C9432010C9432010C943201A5
:1000A0000C9432010C9432010C9432010C94320104
:1000B0000C9432010C9432010C9432010C943201F4
:1000C0000C9432010C9432010C9432010C94D01334
:1000D0000C9432010C9432010C9411140C943201E2
:1000E0000C94320100002100240027002A002D007A
:1000F0003000330001010000040107010A01000083
:100100002200250028002B002E00310034000201BF
:100110000000050108010B0100002000230026005B
:1001200029002C002F00320000010000030106010D
:10013000090105050505070508080808020202026D
:100140000A0A080804040404010101010101010173
:100150000303030303030303040707070C0C0C0C3E
:100160000C0C0C0C02020202060606060606060627
:100170000B0B0B0B0B0B0B0B0102102020080810B4
:100180002040102040800201020108040201010207
:1001900004081020408080402010080402018004E0
:1001A000020180402010080402010804020101023B
:1001B0000408102040800102040810204080000044
:1001C000090A02080B0C0D070603040100000000D9
:1001D000000000000000000000000000000000001F
:1001E00000000000000000000000100F0E000000E2
:1001F00000000000000000000000000000000000FF
:100200000000000070011A027804281669017104C8
:1002100011241FBECFEFD1E2DEBFCDBF13E0A0E0BF
:10022000B2E0EEE9F4E300E00BBF02C007900D92EC
:10023000A037B107D9F718E0A0E7B3E001C01D92DD
:10024000A338B107E1F712E0CCE0D2E004C0229776
:10025000FE010E943E1AC430D107C9F70E949619C8
:100260000C94421A0C9400008DE298E00E94E11573
:100270000895682F8DE298E00E94151680E090E0C6
:1002800008958DE298E040E051EE60E070E00E9459
:10029000B2140895F894FFCF8130910561F46F5F37
:1002A0007F4FB1F481E793E00E9425048BE793E050
:1002B0000E9425040895892B59F46F5F7F4F41F404
:1002C0008BE793E00E94470481E793E00E94470494
:1002D000089580E090E06FEF7FEF0E944C01089559
:1002E00081E090E06FEF7FEF0E944C01089588E875
:1002F00093E00E9472026AE070E080E090E00E9469
:100300001E060895EF92FF920F931F9308E813E0E3
:10031000C8010E9441018DE061E00E94B306C8015E
:1003200060E072E00E9483038093700381E7E82E0F
:1003300083E0F82EC80169E072E046EC51E09701D5
:100340000E948603C70106966EE170E00E943505A3
:1003500081E893E06CE370E00E9435051F910F91F6
:10036000FF90EF90089580918503882341F48DE0FC
:1003700061E00E94D30681E08093850308958DE0BB
:1003800060E00E94D3061092850308950E94B30195
:1003900000D000D000D0EDB7FEB731968091810338
:1003A00090918203ADB7BEB712969C938E9311972E
:1003B0008EE092E09383828380917703909178031B
:1003C000958384830E94B6108DB79EB706960FB6AC
:1003D000F8949EBF0FBE8DBF88E893E060917003D4
:1003E0004BE753E00E9462030895FC0180E292E033
:1003F000918380830895FC0180E292E09183808361
:100400000895FC0180E292E0918380830895FC01CD
:1004100080E292E0918380830895FC01E55AFE4FCB
:1004200011821082E25DFE4F1192119210820895A6
:100430000895089589E391E064E371E00E94091052
:1004400090938703809386030895EF92FF920F9312
:10045000DF93CF9300D0CDB7DEB77B015A834983BA
:10046000822F609186037091870390E00E9455105F
:100470006091860370918703802F90E00E94551051
:100480002091860330918703CE01019662E070E0EF
:1004900041E050E00E94811069817A8120918603B9
:1004A00030918703C70141E050E00E9481100F9016
:1004B0000F90CF91DF910F91FF90EF9008950F93E0
:1004C0001F938C0164EB73E00E940305AC01C8012B
:1004D000045D1F4FB8012FEF00E00E9425021F911D
:1004E0000F9108955F926F927F928F929F92AF9239
:1004F000BF92CF92DF92EF92FF920F931F93CF9311
:10050000DF93EC0180918603909187030E94340170
:100510009C01E1E66E2EE1E07E2E6C0E7D1E79E8F8
:10052000A72E72E0B72EAC0EBD1E6BE8E62E62E081
:10053000F62EEC0EFD1E552453948E01055A1E4FC7
:1005400059E5C52E51E0D52ECC0EDD1E48E5842E92
:1005500041E0942E8C0E9D1EA0C0D5018D919C91E2
:100560001197FE01E80FF91FE35AFE4F20839C010B
:100570002F5F3F4F2D933C93F70180818823D9F55E
:1005800024303105C1F55082D601ED91FC91828174
:100590009381D80111969C938E93808181508E3FD8
:1005A00038F41D921C92F50111821082D7011C9221
:1005B000D601ED91FC9180818823E9F49181F401C9
:1005C0008081981740F0D8011D921C92F50111828C
:1005D0001082D7011C92D601ED91FC91828193810A
:1005E0008C52914040F0F80111821082D5011D9289
:1005F0001C92F7011082D7018C91813009F046C01E
:10060000F8018081918101979183808397FF3EC09B
:1006100011821082D5011D921C92F7011082D60121
:10062000ED91FC9180818F3F19F4CE010E945F0211
:10063000D601ED91FC918081882341F5E181F0E0C4
:100640003C96EE0FFF1FEC0FFD1FA081B181ED91D5
:10065000FC9111970280F381E02DCD01B301099542
:10066000D601ED91FC91E181F0E03296DF01AA0F15
:10067000BB1FAC0FBD1F3A96EE0FFF1FEC0FFD1F07
:100680002D913C9180819181F9010995809186039A
:10069000909187030E9434019C01BFEF2F3F3B07DD
:1006A00009F05BCFDF91CF911F910F91FF90EF90F9
:1006B000DF90CF90BF90AF909F908F907F906F9082
:1006C0005F900895CF92DF92EF92FF920F936C01AB
:1006D000062FDA01FCE2EF2EF12CE80EF91EED9167
:1006E000FC910190F081E02DCA01B7010995AC01A0
:1006F000C601B70120E00E9425020F91FF90EF9004
:10070000DF90CF9008950E947F040895CF92DF92EA
:10071000EF92FF920F931F938C017A0169010E945F
:100720007F04E82FF0E03296DF01AA0FBB1FA00F75
:10073000B11FED92FC923A96EE0FFF1FE00FF11FF2
:10074000D182C0821F910F91FF90EF90DF90CF90E8
:100750000895FF920F931F938C01F42E0E9492052F
:10076000085A1E4FF801F0820D5F1F4FF8011182E9
:100770001082025D1E4FF80111821082095812404A
:10078000C801835A9E4F075A1E4FF80191838083F8
:100790000E5C1E4FF80110821F910F91FF9008957B
:1007A000FF920F931F938C01F42E0E949205085A1A
:1007B0001E4FF801F0820D5F1F4FF8011182108269
:1007C000025D1E4FF8011182108209581240C801C3
:1007D000835A9E4F075A1E4FF801918380830E5C07
:1007E0001E4FF80110821F910F91FF9008950696F9
:1007F0000E94A004089506960E94AC0408950696EF
:100800000E94030508950F931F938C010E94F50128
:100810008AE292E0F80191838083C80106960E94E3
:100820009C041F910F9108950F931F938C010E94B8
:10083000F5018AE292E0F80191838083C80106966F
:100840000E949C041F910F9108950F931F938C0198
:100850000E94F5018AE292E0F80191838083C80149
:1008600006960E949C041F910F9108950F931F9369
:100870008C010E94F5018AE292E0F8019183808365
:10088000C80106960E949C041F910F910895FC01D7
:100890008AE292E091838083CF010E940102089551
:1008A000FC018AE292E091838083CF010E940102E1
:1008B00008958130910559F46F5F7F4F89F488E87E
:1008C00093E060E372E042E00E94A9030895892B5F
:1008D00039F46F5F7F4F21F488E893E00E9419029A
:1008E000089580E090E06FEF7FEF0E945904089533
:1008F00081E090E06FEF7FEF0E9459040895CF935D
:10090000DF93EB01CB016DE372E00E94F10F0097E2
:1009100011F480E00AC0CE0162E472E00E94F10F9F
:100920009C0180E0232B09F481E0DF91CF910895B1
:10093000FC01138212820895FC0113821282089531
:10094000FC01A081B181FD0101900020E9F7EA1BC3
:10095000FB0B3396CF010895AF92BF92CF92DF92F7
:10096000EF92FF920F931F93DF93CF9300D000D0AD
:10097000CDB7DEB77C01FB012191319141915191BD
:1009800029833A834B835C83D70112960D911C9186
:1009900013975801CC24DD246C9111967C91A216FA
:1009A000B306C406D50670F4CB01BF01A8010E94AE
:1009B000E80FD701ED91FC91119712968D919C91C2
:1009C00013970AC0CB01BF01A9010E94E80FD7010C
:1009D000ED91FC9189819A81E80FF91F108229819C
:1009E0003A812C5F3F4FC9010F900F900F900F90ED
:1009F000CF91DF911F910F91FF90EF90DF90CF90FB
:100A0000BF90AF900895DF93CF9300D000D0CDB7C3
:100A1000DEB79C01DC01EC911196FC91DF010D9099
:100A20000020E9F7CD0101978E1B9F0BA0E0B0E0FD
:100A3000AC0189839A83AB83BC83FB01819391933F
:100A4000A193B193D9016C9111967C91CF010E9431
:100A5000E80F29813A812C5F3F4FC9010F900F9019
:100A60000F900F90CF91DF9108950F931F93CF9325
:100A7000DF93EC018B018A819B81892B59F4CB0197
:100A800001960E94E60E888399831B830A83E8817E
:100A9000F9811082DF91CF911F910F910895CF922C
:100AA000DF92EF92FF920F931F93CF93DF937C011E
:100AB000D62EC72EE62FF72FEF0109900020E9F779
:100AC0002197CE1BDF0BDC0112968D919C91139721
:100AD000892B21F4C701BE010E943505F70162810F
:100AE00073816C177D0718F08C2F6D2F02C0862F35
:100AF000672F082F162FD7018D919C916D2D7C2D7E
:100B0000A8010E94FA0FD701ED91FC91E00FF11FAF
:100B10001082DF91CF911F910F91FF90EF90DF90A6
:100B2000CF9008950E944F0508950E944F050895A3
:100B300060E070E00E943505089560E070E00E947A
:100B4000350508951F920F920FB60F9211242F931F
:100B50003F938F939F93AF93BF938091180690918B
:100B60001906A0911A06B0911B0630911C06019639
:100B7000A11DB11D232F2D5F2D3720F02D5701967C
:100B8000A11DB11D20931C06809318069093190691
:100B9000A0931A06B0931B06809114069091150637
:100BA000A0911606B09117060196A11DB11D809364
:100BB000140690931506A0931606B0931706BF91DE
:100BC000AF919F918F913F912F910F900FBE0F90FA
:100BD0001F9018958FB7F894209118063091190638
:100BE00040911A0650911B068FBFB901CA010895A2
:100BF0009FB7F8942091140630911506409116067F
:100C00005091170686B5A89B06C08F3F21F02F5F35
:100C10003F4F4F4F5F4F9FBF542F432F322F2227FD
:100C2000280F311D411D511D82E0220F331F441F2B
:100C3000551F8A95D1F7B901CA010895EF92FF9225
:100C40000F931F937B018C018FB7F8944091180686
:100C50005091190660911A0670911B068FBF2FB72D
:100C6000F8948091180690911906A0911A06B091F7
:100C70001B062FBF841B950BA60BB70BE816F906B6
:100C80000A071B0760F71F910F91FF90EF900895DF
:100C9000019739F0880F991F880F991F02970197C4
:100CA000F1F70895789484B5826084BD84B581603D
:100CB00084BD85B5826085BD85B5816085BDEEE664
:100CC000F0E0808181608083E1E8F0E080818260F3
:100CD0008083808181608083E0E8F0E080818160B2
:100CE0008083E1EBF0E0808184608083E0EBF0E0E2
:100CF000808181608083E1E9F0E08081826080838F
:100D0000808181608083E1EAF0E08081826080837D
:100D1000808181608083E1E2F1E080818260808374
:100D2000808181608083E0E9F0E080818160808360
:100D3000E0EAF0E0808181608083E0E2F1E08081A0
:100D400081608083EAE7F0E0808184608083808135
:100D500082608083808181608083808180688083DD
:100D60001092C1000895282F30E0C90188589E4F85
:100D7000FC0194912E5C3E4FF9018491882391F0FF
:100D8000E82FF0E0EE0FFF1FEC51FF4FA591B4915B
:100D9000662329F48C91909589238C9308958C91E6
:100DA000892B8C930895482F50E0CA0182549E4F9E
:100DB000FC012491CA0188589E4FFC0194914E5C1D
:100DC0005E4FFA013491332309F477C0222309F4EA
:100DD00062C0233021F4809180008F7705C02430D9
:100DE00031F4809180008F7D8093800054C0213049
:100DF00019F484B58F7704C0223021F484B58F7D37
:100E000084BD49C0263021F48091B0008F7705C0A1
:100E1000273031F48091B0008F7D8093B0003BC0CB
:100E2000283021F4809190008F7705C0293031F46B
:100E3000809190008F7D809390002DC02A3021F406
:100E400080919000877FF7CF2B3021F48091A00014
:100E50008F770BC02C3021F48091A0008F7D05C0CE
:100E60002D3031F48091A000877F8093A00013C0C3
:100E70002E3021F4809120018F770BC02F3021F488
:100E8000809120018F7D05C0203129F480912001BF
:100E9000877F80932001E32FF0E0EE0FFF1FE250E9
:100EA000FF4FA591B491662329F48C9190958923E5
:100EB0008C9308958C91892B8C930895682F70E002
:100EC000CB0182549E4FFC012491CB0188589E4F48
:100ED000FC0144916E5C7E4FFB019491992319F4BF
:100EE00020E030E075C0222309F462C0233021F4F1
:100EF000809180008F7705C0243031F4809180008C
:100F00008F7D8093800054C0213019F484B58F7791
:100F100004C0223021F484B58F7D84BD49C02630C1
:100F200021F48091B0008F7705C0273031F4809193
:100F3000B0008F7D8093B0003BC0283021F48091B9
:100F400090008F7705C0293031F4809190008F7D1B
:100F5000809390002DC02A3021F480919000877FEB
:100F6000F7CF2B3021F48091A0008F770BC02C306D
:100F700021F48091A0008F7D05C02D3031F4809147
:100F8000A000877F8093A00013C02E3021F48091B1
:100F900020018F770BC02F3021F4809120018F7DAD
:100FA00005C0203129F480912001877F80932001A2
:100FB000892F90E0880F991F885E9E4FFC01A591B4
:100FC000B4918C9120E030E0842311F021E030E0F6
:100FD000C9010895EF92FF920F931F937B018C013B
:100FE00020E030E040E05FE40E94660B88238CF054
:100FF000C801B70120E030E040E05FE40E946209F0
:101000000E94240C9B01AC012050304040405048CD
:1010100006C0C801B7010E94240C9B01AC01B901B4
:10102000CA011F910F91FF90EF900895A0E0B0E0EA
:10103000ECE1F8E00C94051ADC012B01FA019C911B
:10104000923008F439C1EB018881823008F433C151
:10105000943069F4843009F02FC111969C91119756
:101060008981981709F428C1ADE4B2E025C1843024
:1010700009F421C18230A9F4923009F01DC19A010E
:10108000AD0188E0EA010990AE01E90109929E01F3
:101090008150C1F7E201898111969C918923818356
:1010A00008C1923009F407C112962D903C90139715
:1010B000EB018A819B811496AD90BD90CD90DC9020
:1010C0001797EC80FD800E811F819101281B390B41
:1010D000B90137FF04C066277727621B730B6032A4
:1010E00071050CF061C0121613066CF5370148014A
:1010F000062E04C096948794779467940A94D2F746
:1011000021E030E040E050E004C0220F331F441FD4
:10111000551F6A95D2F721503040404050402E2153
:101120003F2140235123211531054105510521F06F
:1011300021E030E040E050E079018A01E628F7281C
:10114000082919293CC0232BD1F1260E371E350161
:101150004601062E04C096948794779467940A9467
:10116000D2F721E030E040E050E004C0220F331F0E
:10117000441F551F6A95D2F72150304040405040DF
:101180002A213B214C215D212115310541055105C5
:1011900021F021E030E040E050E059016A01A6284A
:1011A000B728C828D9280BC0821593052CF01C013C
:1011B000AA24BB24650103C0EE24FF2487011196F5
:1011C0009C91D20111968C91981709F445C09923EE
:1011D00039F0A80197012A193B094C095D0906C09D
:1011E000A60195012E193F09400B510B57FD08C070
:1011F00011823382228224833583468357831DC024
:1012000081E081833382228288279927DC01821B37
:10121000930BA40BB50B84839583A683B7830DC072
:10122000220F331F441F551F248335834683578362
:1012300082819381019793838283248135814681C2
:101240005781DA01C9010197A109B1098F5F9F4F49
:10125000AF4FBF4328F30BC0918333822282EA0C45
:10126000FB1C0C1D1D1DE482F5820683178383E0A1
:101270008083248135814681578157FF1AC0C90177
:10128000AA2797FDA095BA2F81709070A070B070BA
:101290005695479537952795822B932BA42BB52BE5
:1012A00084839583A683B7838281938101969383F8
:1012B0008283DF0101C0D201CD01CDB7DEB7E2E10B
:1012C0000C94211AA0E2B0E0E8E6F9E00C94111ABF
:1012D00069837A838B839C832D833E834F835887D6
:1012E000E9E0EE2EF12CEC0EFD1ECE010196B701C9
:1012F0000E94150E8E010F5E1F4FCE010596B8019C
:101300000E94150E8A8991E089278A8BC701B8014E
:10131000AE01475E5F4F0E9416080E94400DA096E6
:10132000E6E00C942D1AA0E2B0E0E9E9F9E00C94B3
:10133000111A69837A838B839C832D833E834F8329
:101340005887F9E0EF2EF12CEC0EFD1ECE01019630
:10135000B7010E94150E8E010F5E1F4FCE0105963C
:10136000B8010E94150EC701B801AE01475E5F4F7C
:101370000E9416080E94400DA096E6E00C942D1ADB
:10138000A0E2B0E0E6ECF9E00C94051A69837A83F8
:101390008B839C832D833E834F835887CE01019698
:1013A000BE01675F7F4F0E94150ECE010596BE01FC
:1013B0006F5E7F4F0E94150E9985923088F0898963
:1013C0008230C8F0943019F4823051F404C0843073
:1013D00029F4923081F48DE492E0C6C0923049F451
:1013E00020E09A858A89981321E02A87CE01099600
:1013F000BBC0823049F420E09A858A89981321E0A5
:101400002A8BCE014196B0C02D843E844F845888EB
:101410006D887E888F88988CEE24FF248701AA240B
:10142000BB24650140E050E060E070E0E0E0F0E007
:10143000C10181709070892BE9F0E60CF71C081D42
:10144000191D9A01AB012A0D3B1D4C1D5D1D80E04D
:1014500090E0A0E0B0E0E614F7040805190520F4D8
:1014600081E090E0A0E0B0E0BA01A901480F591F67
:101470006A1F7B1FAA0CBB1CCC1CDD1C97FE08C07E
:1014800081E090E0A0E0B0E0A82AB92ACA2ADB2ACD
:101490003196E032F10549F0660C771C881C991CE6
:1014A0005694479437942794C3CFFA85EA892B89B9
:1014B0003C898B859C85280F391F2E5F3F4F17C0B5
:1014C000CA0181709070892B61F016950795F79489
:1014D000E79480E090E0A0E0B0E8E82AF92A0A2B3F
:1014E0001B2B76956795579547952F5F3F4F77FD57
:1014F000E7CF0CC0440F551F661F771F17FD4160D3
:10150000EE0CFF1C001F111F21503040403090E0B6
:10151000590790E0690790E4790760F32B8F3C8FBF
:10152000DB01CA018F779070A070B0708034910594
:10153000A105B10561F447FD0AC0E114F1040105FC
:10154000110529F0405C5F4F6F4F7F4F40781A8E36
:10155000FE1711F081E08A8F4D8F5E8F6F8F78A319
:1015600083E0898FCE0149960E94400DA096E2E16A
:101570000C94211AA8E1B0E0E0ECFAE00C940D1A0A
:1015800069837A838B839C832D833E834F83588723
:10159000B9E0EB2EF12CEC0EFD1ECE010196B70149
:1015A0000E94150E8E010F5E1F4FCE010596B801E9
:1015B0000E94150E2985223008F47EC03989323008
:1015C00010F4B8017CC08A859A8989278A872430DB
:1015D00011F0223031F4231709F06EC06DE472E08F
:1015E0006EC0343039F41D861E861F86188A1C860C
:1015F0001B8604C0323021F484E08987B7015FC0C4
:101600002B853C858B899C89281B390B3C872B8734
:10161000ED84FE840F851889AD88BE88CF88D88C6C
:10162000EA14FB040C051D0540F4EE0CFF1C001F22
:10163000111F215030403C872B8720E030E040E0F4
:1016400050E080E090E0A0E0B0E460E070E0EA14F8
:10165000FB040C051D0540F0282B392B4A2B5B2B76
:10166000EA18FB080C091D09B695A795979587956B
:10167000EE0CFF1C001F111F6F5F7F4F6F31710554
:1016800031F7DA01C9018F779070A070B0708034A3
:101690009105A105B10561F427FD0AC0E114F1042B
:1016A0000105110529F0205C3F4F4F4F5F4F207817
:1016B0002D873E874F87588BBE01675F7F4FCB01D9
:1016C0000E94400D6896EAE00C94291AA8E1B0E067
:1016D000ECE6FBE00C94111A69837A838B839C837C
:1016E0002D833E834F83588789E0E82EF12CEC0E42
:1016F000FD1ECE010196B7010E94150E8E010F5EF0
:101700001F4FCE010596B8010E94150E89858230C3
:1017100040F08989823028F0C701B8010E948D0EFF
:1017200001C08FEF6896E6E00C942D1AA8E1B0E0B6
:10173000ECE9FBE00C94111A69837A838B839C8318
:101740002D833E834F83588789E0E82EF12CEC0EE1
:10175000FD1ECE010196B7010E94150E8E010F5E8F
:101760001F4FCE010596B8010E94150E8985823063
:1017700040F08989823028F0C701B8010E948D0E9F
:1017800001C081E06896E6E00C942D1AA8E0B0E074
:10179000ECECFBE00C940E1A9B01AC0183E0898316
:1017A000DA01C9018827B7FD83959927AA27BB27A6
:1017B000B82E211531054105510519F482E08983C0
:1017C0003AC08823A9F0203080E0380780E048073D
:1017D00080E8580729F460E070E080E09FEC30C0BA
:1017E000EE24FF248701E21AF30A040B150B02C052
:1017F00079018A018EE1C82ED12CDC82CB82ED8268
:10180000FE820F831887C801B7010E94F10C01976F
:101810001816190684F4082E04C0EE0CFF1C001FD5
:10182000111F0A94D2F7ED82FE820F831887C81A1F
:10183000D90ADC82CB82BA82CE0101960E94400D89
:101840002896E9E00C942A1AACE0B0E0EAE2FCE069
:101850000C94151A69837A838B839C83CE0101963D
:10186000BE016B5F7F4F0E94150E8D81823061F14A
:10187000823050F1843021F48E81882351F12EC0C2
:101880002F81388537FD20C06E812F3131051CF046
:101890006623F9F023C08EE190E0821B930B29852B
:1018A0003A854B855C8504C05695479537952795B5
:1018B0008A95D2F76623B1F05095409530952195E1
:1018C0003F4F4F4F5F4F0EC020E030E040E050E010
:1018D00009C02FEF3FEF4FEF5FE704C020E030E09B
:1018E00040E050E8B901CA012C96E2E00C94311AAC
:1018F000A8E0B0E0EEE7FCE00C940D1A7B018C014F
:10190000611571058105910519F482E0898360C034
:1019100083E089838EE1C82ED12CDC82CB82ED82DC
:10192000FE820F831887C801B7010E94F10CFC01E9
:101930003197F7FF3BC0222733272E1B3F0B570160
:101940006801022E04C0D694C794B794A7940A9451
:10195000D2F740E050E060E070E081E090E0A0E08D
:10196000B0E004C0880F991FAA1FBB1F2A95D2F7A9
:101970000197A109B1098E219F21A023B1230097CE
:10198000A105B10521F041E050E060E070E04A2996
:101990005B296C297D294D835E836F8378878EE177
:1019A00090E08E1B9F0B9C838B8312C0309781F03D
:1019B0000E2E04C0EE0CFF1C001F111F0A94D2F75C
:1019C000ED82FE820F831887CE1ADF0ADC82CB827B
:1019D0001A82CE0101960E94400D2896EAE00C94EE
:1019E000291AEF92FF920F931F937B018C0180E0E5
:1019F000E81680E0F80681E0080780E0180788F420
:101A00008FEFE816F1040105110531F028F088E0A8
:101A100090E0A0E0B0E017C080E090E0A0E0B0E08F
:101A200012C080E0E81680E0F80680E0080781E058
:101A3000180728F088E190E0A0E0B0E004C080E161
:101A400090E0A0E0B0E020E230E040E050E0281B71
:101A5000390B4A0B5B0B04C016950795F794E79476
:101A60008A95D2F7F701EB5AFD4F8081281B310987
:101A700041095109C9011F910F91FF90EF900895FD
:101A8000DF92EF92FF920F931F93FC01E480F580A9
:101A900006811781D1808081823048F480E090E017
:101AA000A0E1B0E0E82AF92A0A2B1B2BA5C084305C
:101AB00009F49FC0823021F4EE24FF24870105C081
:101AC000E114F1040105110519F4E0E0F0E096C01D
:101AD000628173819FEF623879070CF05BC022E866
:101AE0003FEF261B370B2A3131052CF020E030E088
:101AF00040E050E02AC0B801A701022E04C076954C
:101B00006795579547950A94D2F781E090E0A0E059
:101B1000B0E004C0880F991FAA1FBB1F2A95D2F7F7
:101B20000197A109B1098E219F21A023B12300971C
:101B3000A105B10521F081E090E0A0E0B0E09A01BC
:101B4000AB01282B392B4A2B5B2BDA01C9018F778C
:101B50009070A070B07080349105A105B10539F482
:101B600027FF09C0205C3F4F4F4F5F4F04C0215CEF
:101B70003F4F4F4F5F4FE0E0F0E02030A0E03A07EA
:101B8000A0E04A07A0E45A0710F0E1E0F0E0790194
:101B90008A0127C06038710564F5FB01E158FF4FE9
:101BA000D801C7018F779070A070B0708034910514
:101BB000A105B10539F4E7FE0DC080E490E0A0E096
:101BC000B0E004C08FE390E0A0E0B0E0E80EF91EC2
:101BD0000A1F1B1F17FF05C016950795F794E7947A
:101BE000319687E016950795F794E7948A95D1F793
:101BF00005C0EE24FF248701EFEFF0E06E2F67951C
:101C000066276795902F9F77D794DD24D7948E2FE2
:101C10008695492F462B582F5D29B701CA011F9180
:101C20000F91FF90EF90DF900895FC01DB01408160
:101C300051812281622F6F7770E0221F2227221F9D
:101C40009381892F880F822B282F30E0991F9927A5
:101C5000991F11969C93119721153105A9F54115EE
:101C600051056105710511F482E037C082E89FEFEC
:101C700013969C938E9312979A01AB0167E0220F03
:101C8000331F441F551F6A95D1F783E08C930DC015
:101C9000220F331F441F551F12968D919C9113974D
:101CA000019713969C938E931297203080E038070B
:101CB00080E0480780E4580758F314962D933D932D
:101CC0004D935C93179708952F3F310579F4411593
:101CD00051056105710519F484E08C93089564FF42
:101CE00003C081E08C9312C01C9210C02F5730406B
:101CF00013963C932E93129783E08C9387E0440FC6
:101D0000551F661F771F8A95D1F7706414964D93FF
:101D10005D936D937C93179708951F93DC01FB01EE
:101D20009C91923008F447C08081823008F443C00F
:101D3000943051F411961C91843099F58181682F6B
:101D400070E0611B71093FC0843021F0923031F4A2
:101D50008230B9F18181882389F12DC011961C91BF
:101D600011978230F1F081811817D9F412962D91D4
:101D70003C911397828193818217930794F02817DF
:101D80003907BCF014968D919D910D90BC91A02DBA
:101D90002481358146815781281739074A075B0717
:101DA00018F4112341F00AC082179307A407B5075E
:101DB00040F4112319F061E070E005C06FEF7FEF90
:101DC00002C060E070E0CB011F910895CF93DF93D4
:101DD000BC018230910510F462E070E0A0917B08B4
:101DE000B0917C08ED01E0E0F0E040E050E021C07F
:101DF000888199818617970769F48A819B8130973A
:101E000019F09383828304C090937C0880937B08AD
:101E1000FE0134C06817790738F44115510519F0EF
:101E20008417950708F4AC01FE018A819B819C010F
:101E3000E9012097E9F641155105A9F1CA01861B70
:101E4000970B049708F4BA01E0E0F0E02AC08D9106
:101E50009C91119784179507F9F46417750781F41D
:101E600012968D919C911397309719F093838283EA
:101E700004C090937C0880937B08FD0132964CC08F
:101E8000CA01861B970BFD01E80FF91F619371933F
:101E900002978D939C9340C0FD01828193819C01A8
:101EA000D9011097A1F68091790890917A08892B31
:101EB00041F4809157039091580390937A0880934E
:101EC00079084091590350915A034115510541F445
:101ED0004DB75EB78091550390915603481B590B3F
:101EE0002091790830917A08CA01821B930B8617DA
:101EF000970780F0AB014E5F5F4F8417950750F056
:101F0000420F531F50937A0840937908F901619367
:101F1000719302C0E0E0F0E0CF01DF91CF9108952E
:101F2000CF93DF93009709F450C0EC0122971B82F6
:101F30001A82A0917B08B0917C08109709F140E0CB
:101F400050E0AC17BD0708F1BB83AA83FE012191C5
:101F50003191E20FF31FAE17BF0779F48D919C9179
:101F60001197280F391F2E5F3F4F39832883129610
:101F70008D919C9113979B838A834115510571F430
:101F8000D0937C08C0937B0820C012968D919C91C1
:101F90001397AD01009711F0DC01D3CFFA01D38381
:101FA000C28321913191E20FF31FCE17DF0769F44D
:101FB00088819981280F391F2E5F3F4FFA013183A5
:101FC00020838A819B8193838283DF91CF910895BF
:101FD000FB01DC0102C001900D9241505040D8F746
:101FE0000895FB01DC018D91019080190110D9F356
:101FF000990B0895FB01DC014150504048F00190DD
:102000000D920020C9F701C01D9241505040E0F7E9
:1020100008950F931F93CF93DF938C01EB010097EB
:1020200031F46115710519F420E030E038C081E029
:1020300090E06EE070E00E94B712FC019C010097F6
:1020400071F180E88383209771F0D387C28781E89C
:10205000838380917D0890917E08892B21F4F093F1
:102060007E08E0937D0801151105C9F011870087EE
:1020700083818260838380917F0890918008892B7F
:1020800071F4F0938008E0937F088091810890912B
:102090008208892B21F4F0938208E0938108C9011A
:1020A000DF91CF911F910F9108950F931F93CF93BD
:1020B000DF938C01EB018B8181FF1BC082FF0DC080
:1020C0002E813F818C819D812817390764F4E88136
:1020D000F9810193F983E88306C0E885F985802FAB
:1020E0000995892B31F48E819F8101969F838E8380
:1020F00002C00FEF1FEFC801DF91CF911F910F9129
:102100000895A0E0B0E0E7E8F0E10C940B1AFC01C0
:102110004B015A016901D90113968C9181FF1EC0B0
:102120007F01C0E0D0E014C0D6011896ED91FC917B
:102130001997D7018C91B6010995892B89F40894D8
:10214000E11CF11C0F5F1F4F0815190568F321965C
:10215000CA15DB0528F400E010E0F6CFC0E0D0E0BF
:10216000CE01CDB7DEB7ECE00C94271AAEE0B0E0BC
:10217000ECEBF0E10C94131A0D891E8986E08C8338
:102180001A8309838FEF9FE79E838D839E01275ECD
:102190003F4FCE0101966F89788DA9010E94DA1018
:1021A0002F813885020F131FF80110822E96E4E06C
:1021B0000C942F1AABE0B0E0E0EEF0E10C94051ABD
:1021C0003C012B015A01FC0117821682838181FD9B
:1021D00003C06FEF7FEFC6C19AE0892E1E010894FD
:1021E000211C311CF3012381F20123FD859123FF82
:1021F00081912F01882309F4B2C1853239F423FD7E
:10220000859123FF81912F01853229F490E0B3015C
:102210000E945510E7CF982FFF24EE249924FFE168
:10222000FF15D0F09B3269F09C3228F4903259F0BF
:10223000933291F40EC09D3249F0903369F441E03D
:1022400024C052E0F52A84E0F82A28C098E0F92A50
:1022500025C0E0E1FE2A22C0F7FC29C0892F805367
:102260008A3070F4F6FE05C0989C902C1124980ECC
:1022700015C0E89CE02C1124E80EF0E2FF2A0EC005
:102280009E3229F4F6FC6BC140E4F42A07C09C3668
:1022900019F450E8F52A02C0983649F4F20123FDFA
:1022A000959123FF91912F01992309F0B8CF892FA0
:1022B0008554833018F08052833038F444E050E085
:1022C000A40EB51E5FE359830FC0933631F09337E8
:1022D00079F0933509F056C020C0F50180818983DB
:1022E00042E050E0A40EB51E610101E010E012C012
:1022F000F501C080D180F6FC03C06FEF7FEF02C014
:10230000692D70E042E050E0A40EB51EC6010E94A7
:10231000E5128C015FE7F52214C0F501C080D18081
:10232000F6FC03C06FEF7FEF02C0692D70E042E062
:1023300050E0A40EB51EC6010E94D3128C0150E8D5
:10234000F52AF3FE07C01AC080E290E0B3010E94B4
:102350005510EA948E2D90E008171907A8F30EC0C7
:10236000F601F7FC8591F7FE81916F0190E0B301D2
:102370000E945510E110EA9401501040011511051A
:1023800079F7EAC0943611F0993669F5F7FE08C07E
:10239000F501208131814281538184E090E00AC0BF
:1023A000F501808191819C01442737FD4095542F90
:1023B00082E090E0A80EB91E9FE6F92257FF09C0FF
:1023C00050954095309521953F4F4F4F5F4FE0E836
:1023D000FE2ACA01B901A1012AE030E00E94F012F0
:1023E000D82ED21840C0953729F41F2D1F7E2AE021
:1023F00030E01DC01F2D197F9F3661F0903720F40B
:10240000983509F0ACC00FC0903739F0983709F013
:10241000A6C004C028E030E00AC0106114FD1460BA
:1024200020E130E004C014FD166020E132E017FF27
:1024300008C0F501608171818281938144E050E0A0
:1024400008C0F50180819181BC0180E090E042E00C
:1024500050E0A40EB51EA1010E94F012D82ED21891
:102460008FE7F82EF122F6FE0BC05EEFF522D914AD
:1024700038F4F4FE07C0F2FC05C08FEEF82202C06B
:102480001D2D01C0192DF4FE0DC0FE01ED0DF11D35
:102490008081803319F499EEF92208C01F5FF2FEA3
:1024A00005C003C08F2D867809F01F5F0F2DF3FC48
:1024B00014C0F0FE0FC01E1510F09D2C0BC09D2CFB
:1024C0009E0C911A1E2D06C080E290E0B3010E947E
:1024D00055101F5F1E15C0F304C01E1510F4E11A3D
:1024E00001C0EE2404FF0FC080E390E0B3010E941E
:1024F000551002FF1DC001FD03C088E790E00EC02B
:1025000088E590E00BC0802F867891F001FF02C033
:102510008BE201C080E2F7FC8DE290E0B3010E9403
:10252000551006C080E390E0B3010E9455109A94C4
:10253000D914C0F3DA94F101ED0DF11D808190E022
:10254000B3010E945510DD20A9F706C080E290E09B
:10255000B3010E945510EA94EE20C1F743CEF30177
:1025600066817781CB012B96E2E10C94211A0F93BF
:102570001F93CF93DF93689F8001699F100D789F11
:10258000100D1124C8010E94E60EEC01009729F0FD
:1025900060E070E0A8010E94DE12CE01DF91CF91D1
:1025A0001F910F910895FC0105906150704001103A
:1025B000D8F7809590958E0F9F1F0895DC0101C07C
:1025C0006D9341505040E0F70895FC016150704018
:1025D00001900110D8F7809590958E0F9F1F089558
:1025E000FA01AA27283051F1203181F1E8946F9344
:1025F0006E7F6E5F7F4F8F4F9F4FAF4FB1E03ED0EA
:10260000B4E03CD0670F781F891F9A1FA11D680F87
:10261000791F8A1F911DA11D6A0F711D811D911DBA
:10262000A11D20D009F468943F912AE0269F11242F
:102630003019305D3193DEF6CF010895462F477093
:10264000405D4193B3E00FD0C9F7F6CF462F4F70EE
:10265000405D4A3318F0495D31FD4052419302D04C
:10266000A9F7EACFB4E0A6959795879577956795F2
:10267000BA95C9F700976105710508959B01AC01F2
:102680000A2E06945795479537952795BA95C9F719
:10269000620F731F841F951FA01D08951F920F9234
:1026A0000FB60F920BB60F9211242F933F934F93B7
:1026B0005F936F937F938F939F93AF93BF93EF93AA
:1026C000FF934091C600E0919D06F0919E06CF01D8
:1026D000019660E870E00E94BC199C0180919F0601
:1026E0009091A0062817390739F0E35EF94F40832F
:1026F00030939E0620939D06FF91EF91BF91AF917D
:102700009F918F917F916F915F914F913F912F9109
:102710000F900BBE0F900FBE0F901F9018951F9239
:102720000F920FB60F920BB60F9211242F933F9377
:102730004F935F936F937F938F939F93AF93BF93C9
:10274000EF93FF934091CE00E0912107F091220793
:10275000CF01019660E870E00E94BC199C01809155
:102760002307909124072817390739F0EF55F94FBF
:1027700040833093220720932107FF91EF91BF916F
:10278000AF919F918F917F916F915F914F913F9109
:102790002F910F900BBE0F900FBE0F901F901895AA
:1027A0001F920F920FB60F920BB60F9211242F9318
:1027B0003F934F935F936F937F938F939F93AF93C9
:1027C000BF93EF93FF934091D600E091A507F0915E
:1027D000A607CF01019660E870E00E94BC199C0139
:1027E0008091A7079091A8072817390739F0EB5D6A
:1027F000F84F40833093A6072093A507FF91EF91F0
:10280000BF91AF919F918F917F916F915F914F9108
:102810003F912F910F900BBE0F900FBE0F901F9006
:1028200018951F920F920FB60F920BB60F921124AC
:102830002F933F934F935F936F937F938F939F93C8
:10284000AF93BF93EF93FF9340913601E091290836
:10285000F0912A08CF01019660E870E00E94BC194F
:102860009C0180912B0890912C082817390739F08A
:10287000E755F84F408330932A0820932908FF91A9
:10288000EF91BF91AF919F918F917F916F915F91E8
:102890004F913F912F910F900BBE0F900FBE0F9055
:1028A0001F9018958F92AF92CF92DF92EF92FF9286
:1028B0000F931F93DF93CF93CDB7DEB7FC018FE566
:1028C00093E091838083738362835583448337834A
:1028D000268311870087F386E286D586C486A6867E
:1028E00087868D85808B8E85818B8F85828BCF911E
:1028F000DF911F910F91FF90EF90DF90CF90AF90FD
:102900008F9008958F92AF92CF92DF92EF92FF92C5
:102910000F931F93DF93CF93CDB7DEB7FC018FE505
:1029200093E09183808373836283558344833783E9
:10293000268311870087F386E286D586C486A6861D
:1029400087868D85808B8E85818B8F85828BCF91BD
:10295000DF911F910F91FF90EF90DF90CF90AF909C
:102960008F9008955F926F927F928F929F92AF9215
:10297000BF92CF92DF92EF92FF920F931F93CF936C
:10298000DF93EC015A016B0181E4A81682E4B806DA
:102990008FE0C80680E0D80608F077C060E874E8E9
:1029A0008EE190E0A60195010E94CF1939014A01FC
:1029B0000894610871088108910896948794779427
:1029C0006794A40193012F5F3F4F4F4F5F4F74E017
:1029D000220F331F441F551F7A95D1F760E074E230
:1029E00084EF90E00E94CF19CA01B9012FEF30E0C7
:1029F00040E050E00E949D19A60195010E94CF1968
:102A00008FEF90E0821B930B181619061CF4522EC0
:102A1000509402C0522E539460E079E08DE390E030
:102A2000A60195010E94CF192150304040405040EE
:102A300056954795379527952F5F3F4F4F4F5F4FDF
:102A400093E0220F331F441F551F9A95D1F760E082
:102A500074E284EF90E00E94CF19CA01B9012FEF10
:102A600030E040E050E00E949D19A60195010E94CF
:102A7000CF198FEF90E0821B930B1816190614F4F0
:102A8000209501C02F5F2515F0F4E885F98581E0D8
:102A900090E00A8802C0880F991F0A94E2F78083A9
:102AA00060E079E08DE390E0A60195010E94CF19E6
:102AB00021503040404050405695479537952795D6
:102AC000822F232F05C0E885F9851082862D272DBA
:102AD000EC81FD812083EE81FF818083EA85FB8587
:102AE000208141E050E0CA010E8402C0880F991F86
:102AF0000A94E2F7282B2083EA85FB852081CA010E
:102B00000F8402C0880F991F0A94E2F7282B2083B4
:102B1000EA85FB858081088802C0440F551F0A940E
:102B2000E2F7842B8083DF91CF911F910F91FF906B
:102B3000EF90DF90CF90BF90AF909F908F907F905D
:102B40006F905F900895FC01A285B3854C9121E0C0
:102B500030E0C901068402C0880F991F0A94E2F789
:102B6000809584238C93A285B3854C91C9010784F9
:102B700002C0880F991F0A94E2F7809584238C93F2
:102B8000A285B3858C91008802C0220F331F0A945E
:102B9000E2F7209528232C930895DC011296ED91FD
:102BA000FC911397E058FF4F8191919180589F4F6E
:102BB00020813181821B930B60E870E00E94BC1978
:102BC0000895CF93DF93DC011296ED91FC9113975A
:102BD000EF01CE57DF4F48815981E058FF4F808188
:102BE0009181E058F0408417950719F42FEF3FEFDB
:102BF0000CC0E40FF51F2081CA01019660E870E067
:102C00000E94BC199983888330E0C901DF91CF917C
:102C10000895DC011296ED91FC911397EE57FF4F4A
:102C200080819181929382930895FC01A085B18562
:102C300021898C9190E0022E02C0959587950A9487
:102C4000E2F780FFF6CF0484F585E02D60830895D8
:102C50002FE533E030932E0820932D088DE196E088
:102C60009093300880932F0885EC90E09093320881
:102C70008093310884EC90E090933408809333087B
:102C800080EC90E0909336088093350881EC90E0DA
:102C9000909338088093370886EC90E090933A0838
:102CA00080933908E4E0E0933B0873E070933C08BC
:102CB00067E060933D0855E050933E0841E0409343
:102CC0003F08309341082093400881EA96E09093B2
:102CD0004308809342088DEC90E0909345088093E0
:102CE00044088CEC90E0909347088093460888EC69
:102CF00090E0909349088093480889EC90E0909385
:102D00004B0880934A088EEC90E090934D08809396
:102D10004C08E0934E0870934F086093500850930E
:102D2000510840935208309354082093530885E289
:102D300097E0909356088093550885ED90E0909326
:102D400058088093570884ED90E090935A08809338
:102D5000590880ED90E090935C0880935B0881EDCA
:102D600090E090935E0880935D0886ED90E09093EC
:102D7000600880935F08E093610870936208609335
:102D80006308509364084093650830936708209364
:102D9000660889EA97E0909369088093680885E35C
:102DA00091E090936B0880936A0884E391E090939C
:102DB0006D0880936C0880E391E090936F08809396
:102DC0006E0881E391E0909371088093700886E328
:102DD00091E09093730880937208E0937408709365
:102DE00075086093760850937708409378080895A3
:102DF0000F931F93CF93DF938C01EB0109C02196B2
:102E0000D801ED91FC910190F081E02DC801099568
:102E100068816623A1F7DF91CF911F910F910895EB
:102E2000EF92FF920F931F93CF93DF938C017B015F
:102E3000EA010CC0D7016D917D01D801ED91FC91A3
:102E40000190F081E02DC80109952197209791F715
:102E5000DF91CF911F910F91FF90EF900895DC01CA
:102E6000ED91FC910280F381E02D099508952F9258
:102E70003F924F925F926F927F928F929F92AF920A
:102E8000BF92CF92DF92EF92FF920F931F93DF9347
:102E9000CF93CDB7DEB7A0970FB6F894DEBF0FBEC5
:102EA000CDBF1C016A017B0141155105610571050A
:102EB00049F440E350E060E070E020E030E00E9440
:102EC000011854C0882499245401422E55246624A4
:102ED000772401E010E00C0F1D1F080D191DC7011C
:102EE000B601A30192010E94CF19F80160830894F2
:102EF000811C911CA11CB11CC701B601A301920148
:102F00000E94CF19C901DA016C017D01C114D104FD
:102F1000E104F104F1F681E0E82EF12CEC0EFD1E47
:102F2000E80CF91C3E010894611C711CD501C40118
:102F30000197A109B1096C01C818D90814C0F6019C
:102F4000EE0DFF1D40814A3010F4405D01C0495C28
:102F500050E060E070E0C10120E030E00E94011824
:102F60000894E108F1086E147F0449F7A0960FB6A3
:102F7000F894DEBF0FBECDBFCF91DF911F910F91AF
:102F8000FF90EF90DF90CF90BF90AF909F908F9089
:102F90007F906F905F904F903F902F900895DC014D
:102FA0002115310541F4ED91FC910190F081E02D66
:102FB000642F099508950E9437170895EF92FF92A4
:102FC0000F931F939A017B0100E010E0B801A70165
:102FD0000E94CF171F910F91FF90EF900895EF92ED
:102FE000FF920F931F939A01E62EFF2400E010E05A
:102FF000B801A7010E94CF171F910F91FF90EF908A
:103000000895EF92FF920F931F93CF93DF93EC01FC
:103010007A018B012115310541F4E881F981019094
:10302000F081E02D642F09951BC02A303105B1F4E1
:1030300077FF10C04DE250E060E070E020E030E04B
:103040000E94011810950095F094E094E11CF11C89
:10305000011D111DCE01B801A7012AE00E943717FA
:10306000DF91CF911F910F91FF90EF900895EF9214
:10307000FF920F931F937B019A010027F7FC0095A5
:10308000102FB801A7010E9401181F910F91FF9006
:10309000EF900895EF92FF920F931F939A01E62EFF
:1030A000FF2400E010E0B801A7010E9401181F9161
:1030B0000F91FF90EF9008950F931F938C014DE0B7
:1030C00050E060E070E020E030E00E940118C801AC
:1030D0004AE050E060E070E020E030E00E9401183B
:1030E0001F910F9108950F931F938C010E94CF178A
:1030F000C8010E945C181F910F910895CF92DF9232
:10310000EF92FF920F931F938C019A016B01EE24B3
:10311000FF24B701A6010E94CF17C8010E945C18C6
:103120001F910F91FF90EF90DF90CF900895CF9275
:10313000DF92EF92FF920F931F938C019A01C62E9C
:10314000DD24EE24FF24B701A6010E94CF17C80199
:103150000E945C181F910F91FF90EF90DF90CF902D
:1031600008950F931F938C010E942F17C8010E948E
:103170005C181F910F9108950F931F938C010E946B
:103180000118C8010E945C181F910F910895CF92F9
:10319000DF92EF92FF920F931F938C016B019A01C4
:1031A000EE24D7FCE094FE2CB701A6010E94011882
:1031B000C8010E945C181F910F91FF90EF90DF9063
:1031C000CF900895CF92DF92EF92FF920F931F93CB
:1031D0008C019A01C62EDD24EE24FF24B701A6013E
:1031E0000E940118C8010E945C181F910F91FF9066
:1031F000EF90DF90CF9008959F92AF92BF92CF92C1
:10320000DF92EF92FF920F931F93CF93DF93EC0126
:103210007A018B01922ECB01BA0120E030E040E030
:1032200050E00E94960B88236CF4CE014DE250E0F2
:1032300060E070E020E030E00E94011817FB10957C
:1032400017F9109520E030E040E05FE3AA240BC0BE
:10325000CA01B90120E030E040E251E40E94BA0A1C
:103260009B01AC01A394A91498F3C801B7010E9473
:1032700093095B016C010E94EA077B018C01CE017E
:10328000B801A7012AE030E00E94CF17992029F069
:10329000CE016BE472E00E942F17C801B7010E94B3
:1032A000780C9B01AC01C601B5010E94620922C0E5
:1032B00020E030E040E251E40E94C0097B018C0133
:1032C0000E94240C5B016C01CC24B7FCC094DC2C64
:1032D000CE01B601A5012AE030E00E940118C60126
:1032E000B5010E94C60B9B01AC01C801B7010E9449
:1032F00062099A949920E1F6DF91CF911F910F9185
:10330000FF90EF90DF90CF90BF90AF909F90089587
:103310000E94FC1808950F931F938C010E94FC18C3
:10332000C8010E945C181F910F9108950E945206D7
:103330000E9482010E947701FDCF629FD001739F9E
:10334000F001829FE00DF11D649FE00DF11D929F41
:10335000F00D839FF00D749FF00D659FF00D992780
:10336000729FB00DE11DF91F639FB00DE11DF91FA4
:10337000BD01CF011124089597FB092E07260AD01D
:1033800077FD04D02ED006D000201AF470956195F8
:103390007F4F0895F6F7909581959F4F0895A1E28C
:1033A0001A2EAA1BBB1BFD010DC0AA1FBB1FEE1FBF
:1033B000FF1FA217B307E407F50720F0A21BB30B0A
:1033C000E40BF50B661F771F881F991F1A9469F786
:1033D00060957095809590959B01AC01BD01CF01E2
:1033E0000895AA1BBB1B51E107C0AA1FBB1FA6174C
:1033F000B70710F0A61BB70B881F991F5A95A9F79E
:1034000080959095BC01CD0108952F923F924F92E7
:103410005F926F927F928F929F92AF92BF92CF9264
:10342000DF92EF92FF920F931F93CF93DF93CDB76D
:10343000DEB7CA1BDB0B0FB6F894DEBF0FBECDBFE5
:1034400009942A88398848885F846E847D848C84B6
:103450009B84AA84B984C884DF80EE80FD800C81BF
:103460001B81AA81B981CE0FD11D0FB6F894DEBFA2
:103470000FBECDBFED010895EE0FFF1F0590F49133
:10348000E02D099412E0CCE0D2E004C0FE010E94DD
:0E3490003E1A2296C031D107C9F7F894FFCF3B
:10349E00726573706F6E73650063616C6C00596F4B
:1034AE00752073656E74203A2025730000000000AD
:1034BE004A014A014A0100000000FF03FB03F70323
:1034CE0063616C6C526573706F6E73650063616CD3
:1034DE006C00726573706F6E7365002E00000000D5
:1034EE0000000000000001020203030303040404B1
:1034FE000404040404050505050505050505050573
:10350E000505050505060606060606060606060652
:10351E00060606060606060606060606060606063D
:10352E000606060606070707070707070707070722
:10353E00070707070707070707070707070707070D
:10354E0007070707070707070707070707070707FD
:10355E0007070707070707070707070707070707ED
:10356E0007070707070808080808080808080808D2
:10357E0008080808080808080808080808080808BD
:10358E0008080808080808080808080808080808AD
:10359E00080808080808080808080808080808089D
:1035AE00080808080808080808080808080808088D
:1035BE00080808080808080808080808080808087D
:1035CE00080808080808080808080808080808086D
:1035DE00080808080808080808080808080808085D
:1035EE0008080808082000830800000000000015E5
:1035FE0016F8161017000000004A01F816101700F2
:00000001FF
